{
  "_format": "hh-sol-artifact-1",
  "contractName": "QuestAssetFactory",
  "sourceName": "contracts/TokenFactory.sol",
  "abi": [
    {
      "inputs": [],
      "stateMutability": "nonpayable",
      "type": "constructor"
    },
    {
      "inputs": [
        {
          "internalType": "string",
          "name": "_baseURI",
          "type": "string"
        },
        {
          "internalType": "address",
          "name": "_treasuryAdmin",
          "type": "address"
        },
        {
          "internalType": "address",
          "name": "_managingCompany",
          "type": "address"
        },
        {
          "internalType": "bytes",
          "name": "_rightToManagementURI",
          "type": "bytes"
        },
        {
          "internalType": "bytes",
          "name": "_rightToEquityURI",
          "type": "bytes"
        },
        {
          "internalType": "bytes",
          "name": "_rightToControlURI",
          "type": "bytes"
        },
        {
          "internalType": "bytes",
          "name": "_rightToResidencyURI",
          "type": "bytes"
        },
        {
          "internalType": "bytes",
          "name": "_rightToSubsurfaceURI",
          "type": "bytes"
        }
      ],
      "name": "deployQuestCryptoAsset",
      "outputs": [
        {
          "internalType": "address",
          "name": "",
          "type": "address"
        }
      ],
      "stateMutability": "nonpayable",
      "type": "function"
    }
  ],
  "bytecode": "0x6080604052600060015534801561001557600080fd5b5033600260006101000a81548173ffffffffffffffffffffffffffffffffffffffff021916908373ffffffffffffffffffffffffffffffffffffffff160217905550616bc6806100666000396000f3fe60806040523480156200001157600080fd5b50600436106200002e5760003560e01c80631efb7fb81462000033575b600080fd5b6200005160048036038101906200004b9190620002bb565b62000069565b604051620000609190620004a7565b60405180910390f35b6000600260009054906101000a900473ffffffffffffffffffffffffffffffffffffffff1673ffffffffffffffffffffffffffffffffffffffff163373ffffffffffffffffffffffffffffffffffffffff1614620000c657600080fd5b60008988600260009054906101000a900473ffffffffffffffffffffffffffffffffffffffff168b8a8a8a8a8a6040516200010190620001b2565b6200011599989796959493929190620004c4565b604051809103906000f08015801562000132573d6000803e3d6000fd5b50905080600080600154815260200190815260200160002060006101000a81548173ffffffffffffffffffffffffffffffffffffffff021916908373ffffffffffffffffffffffffffffffffffffffff160217905550600160008154809291906200019d90620006e2565b91905055508091505098975050505050505050565b6163d780620007ba83390190565b6000620001d7620001d184620005c1565b6200058d565b905082815260208101848484011115620001f057600080fd5b620001fd8482856200069d565b509392505050565b60006200021c6200021684620005f4565b6200058d565b9050828152602081018484840111156200023557600080fd5b620002428482856200069d565b509392505050565b6000813590506200025b816200079f565b92915050565b600082601f8301126200027357600080fd5b813562000285848260208601620001c0565b91505092915050565b600082601f830112620002a057600080fd5b8135620002b284826020860162000205565b91505092915050565b600080600080600080600080610100898b031215620002d957600080fd5b600089013567ffffffffffffffff811115620002f457600080fd5b620003028b828c016200028e565b9850506020620003158b828c016200024a565b9750506040620003288b828c016200024a565b965050606089013567ffffffffffffffff8111156200034657600080fd5b620003548b828c0162000261565b955050608089013567ffffffffffffffff8111156200037257600080fd5b620003808b828c0162000261565b94505060a089013567ffffffffffffffff8111156200039e57600080fd5b620003ac8b828c0162000261565b93505060c089013567ffffffffffffffff811115620003ca57600080fd5b620003d88b828c0162000261565b92505060e089013567ffffffffffffffff811115620003f657600080fd5b620004048b828c0162000261565b9150509295985092959890939650565b6200041f816200065f565b82525050565b6000620004328262000627565b6200043e81856200063d565b935062000450818560208601620006ac565b6200045b816200078e565b840191505092915050565b6000620004738262000632565b6200047f81856200064e565b935062000491818560208601620006ac565b6200049c816200078e565b840191505092915050565b6000602082019050620004be600083018462000414565b92915050565b6000610120820190508181036000830152620004e1818c62000466565b9050620004f2602083018b62000414565b62000501604083018a62000414565b62000510606083018962000414565b818103608083015262000524818862000425565b905081810360a08301526200053a818762000425565b905081810360c083015262000550818662000425565b905081810360e083015262000566818562000425565b90508181036101008301526200057d818462000425565b90509a9950505050505050505050565b6000604051905081810181811067ffffffffffffffff82111715620005b757620005b66200075f565b5b8060405250919050565b600067ffffffffffffffff821115620005df57620005de6200075f565b5b601f19601f8301169050602081019050919050565b600067ffffffffffffffff8211156200061257620006116200075f565b5b601f19601f8301169050602081019050919050565b600081519050919050565b600081519050919050565b600082825260208201905092915050565b600082825260208201905092915050565b60006200066c8262000673565b9050919050565b600073ffffffffffffffffffffffffffffffffffffffff82169050919050565b6000819050919050565b82818337600083830152505050565b60005b83811015620006cc578082015181840152602081019050620006af565b83811115620006dc576000848401525b50505050565b6000620006ef8262000693565b91507fffffffffffffffffffffffffffffffffffffffffffffffffffffffffffffffff82141562000725576200072462000730565b5b600182019050919050565b7f4e487b7100000000000000000000000000000000000000000000000000000000600052601160045260246000fd5b7f4e487b7100000000000000000000000000000000000000000000000000000000600052604160045260246000fd5b6000601f19601f8301169050919050565b620007aa816200065f565b8114620007b657600080fd5b5056fe6080604052655af3107a4000600d556512309ce54000600e556512309ce54000600f553480156200002f57600080fd5b50604051620063d7380380620063d7833981810160405281019062000055919062001006565b604051806020016040528060008152506200007681620001bc60201b60201c565b50620000976200008b620001d860201b60201c565b620001e060201b60201c565b8860059080519060200190620000af92919062000e18565b50620000c6886000600187620002a660201b60201c565b620000db8860018088620002a660201b60201c565b620000f1886002600185620002a660201b60201c565b62000107886003600186620002a660201b60201c565b6200011d886004600184620002a660201b60201c565b6200014f7fa8b4d5759b170d975531a20afee42f091fe675efe9b17d8afd8b4cd6be8eb14b886200046b60201b60201c565b620001817f4ba1c0b393f1850d2175b0f2d7c2d42c3f898b0037de3434dbcee26a67c6df66876200046b60201b60201c565b6000601160006101000a81548160ff021916908315150217905550620001ad87620004b460201b60201c565b50505050505050505062001afe565b8060029080519060200190620001d492919062000e18565b5050565b600033905090565b6000600360009054906101000a900473ffffffffffffffffffffffffffffffffffffffff16905081600360006101000a81548173ffffffffffffffffffffffffffffffffffffffff021916908373ffffffffffffffffffffffffffffffffffffffff1602179055508173ffffffffffffffffffffffffffffffffffffffff168173ffffffffffffffffffffffffffffffffffffffff167f8be0079c531659141344cd1fd0a4f28419497f9722a3daafe3b4186f6b6457e060405160405180910390a35050565b600073ffffffffffffffffffffffffffffffffffffffff168473ffffffffffffffffffffffffffffffffffffffff16141562000319576040517f08c379a000000000000000000000000000000000000000000000000000000000815260040162000310906200166c565b60405180910390fd5b60006200032b620001d860201b60201c565b905062000364816000876200034688620005ca60201b60201c565b6200035788620005ca60201b60201c565b876200069360201b60201c565b8260008086815260200190815260200160002060008773ffffffffffffffffffffffffffffffffffffffff1673ffffffffffffffffffffffffffffffffffffffff1681526020019081526020016000206000828254620003c5919062001798565b925050819055508473ffffffffffffffffffffffffffffffffffffffff16600073ffffffffffffffffffffffffffffffffffffffff168273ffffffffffffffffffffffffffffffffffffffff167fc3d58168c5ae7397731d063d5bbf3d657854427343f4c083240f7aacaa2d0f628787604051620004459291906200168e565b60405180910390a462000464816000878787876200069b60201b60201c565b5050505050565b6200047c826200088b60201b60201c565b6200049d8162000491620001d860201b60201c565b620008ab60201b60201c565b620004af83836200096f60201b60201c565b505050565b620004c4620001d860201b60201c565b73ffffffffffffffffffffffffffffffffffffffff16620004ea62000a6160201b60201c565b73ffffffffffffffffffffffffffffffffffffffff161462000543576040517f08c379a00000000000000000000000000000000000000000000000000000000081526004016200053a906200164a565b60405180910390fd5b600073ffffffffffffffffffffffffffffffffffffffff168173ffffffffffffffffffffffffffffffffffffffff161415620005b6576040517f08c379a0000000000000000000000000000000000000000000000000000000008152600401620005ad9062001628565b60405180910390fd5b620005c781620001e060201b60201c565b50565b60606000600167ffffffffffffffff81111562000610577f4e487b7100000000000000000000000000000000000000000000000000000000600052604160045260246000fd5b6040519080825280602002602001820160405280156200063f5781602001602082028036833780820191505090505b50905082816000815181106200067e577f4e487b7100000000000000000000000000000000000000000000000000000000600052603260045260246000fd5b60200260200101818152505080915050919050565b505050505050565b620006c78473ffffffffffffffffffffffffffffffffffffffff1662000a8b60201b62001adc1760201c565b1562000883578373ffffffffffffffffffffffffffffffffffffffff1663f23a6e6187878686866040518663ffffffff1660e01b8152600401620007109594939291906200153a565b602060405180830381600087803b1580156200072b57600080fd5b505af19250505080156200075f57506040513d601f19601f820116820180604052508101906200075c919062000fda565b60015b620007f7576200076e62001a06565b806200077b5750620007ba565b806040517f08c379a0000000000000000000000000000000000000000000000000000000008152600401620007b191906200159e565b60405180910390fd5b6040517f08c379a0000000000000000000000000000000000000000000000000000000008152600401620007ee90620015c2565b60405180910390fd5b63f23a6e6160e01b7bffffffffffffffffffffffffffffffffffffffffffffffffffffffff1916817bffffffffffffffffffffffffffffffffffffffffffffffffffffffff19161462000881576040517f08c379a0000000000000000000000000000000000000000000000000000000008152600401620008789062001606565b60405180910390fd5b505b505050505050565b600060046000838152602001908152602001600020600101549050919050565b620008bd828262000a9e60201b60201c565b6200096b57620008f08173ffffffffffffffffffffffffffffffffffffffff16601462000b0960201b62001aef1760201c565b6200090b8360001c602062000b0960201b62001aef1760201c565b6040516020016200091e929190620014f8565b6040516020818303038152906040526040517f08c379a00000000000000000000000000000000000000000000000000000000081526004016200096291906200159e565b60405180910390fd5b5050565b62000981828262000a9e60201b60201c565b62000a5d5760016004600084815260200190815260200160002060000160008373ffffffffffffffffffffffffffffffffffffffff1673ffffffffffffffffffffffffffffffffffffffff16815260200190815260200160002060006101000a81548160ff02191690831515021790555062000a02620001d860201b60201c565b73ffffffffffffffffffffffffffffffffffffffff168173ffffffffffffffffffffffffffffffffffffffff16837f2f8788117e7eff1d82e926ec794901d17c78024a50270940304540a733656f0d60405160405180910390a45b5050565b6000600360009054906101000a900473ffffffffffffffffffffffffffffffffffffffff16905090565b600080823b905060008111915050919050565b60006004600084815260200190815260200160002060000160008373ffffffffffffffffffffffffffffffffffffffff1673ffffffffffffffffffffffffffffffffffffffff16815260200190815260200160002060009054906101000a900460ff16905092915050565b60606000600283600262000b1e9190620017f5565b62000b2a919062001798565b67ffffffffffffffff81111562000b6a577f4e487b7100000000000000000000000000000000000000000000000000000000600052604160045260246000fd5b6040519080825280601f01601f19166020018201604052801562000b9d5781602001600182028036833780820191505090505b5090507f30000000000000000000000000000000000000000000000000000000000000008160008151811062000bfc577f4e487b7100000000000000000000000000000000000000000000000000000000600052603260045260246000fd5b60200101907effffffffffffffffffffffffffffffffffffffffffffffffffffffffffffff1916908160001a9053507f78000000000000000000000000000000000000000000000000000000000000008160018151811062000c87577f4e487b7100000000000000000000000000000000000000000000000000000000600052603260045260246000fd5b60200101907effffffffffffffffffffffffffffffffffffffffffffffffffffffffffffff1916908160001a9053506000600184600262000cc99190620017f5565b62000cd5919062001798565b90505b600181111562000dc7577f3031323334353637383961626364656600000000000000000000000000000000600f86166010811062000d3f577f4e487b7100000000000000000000000000000000000000000000000000000000600052603260045260246000fd5b1a60f81b82828151811062000d7d577f4e487b7100000000000000000000000000000000000000000000000000000000600052603260045260246000fd5b60200101907effffffffffffffffffffffffffffffffffffffffffffffffffffffffffffff1916908160001a905350600485901c94508062000dbf90620018f6565b905062000cd8565b506000841462000e0e576040517f08c379a000000000000000000000000000000000000000000000000000000000815260040162000e0590620015e4565b60405180910390fd5b8091505092915050565b82805462000e269062001925565b90600052602060002090601f01602090048101928262000e4a576000855562000e96565b82601f1062000e6557805160ff191683800117855562000e96565b8280016001018555821562000e96579182015b8281111562000e9557825182559160200191906001019062000e78565b5b50905062000ea5919062000ea9565b5090565b5b8082111562000ec457600081600090555060010162000eaa565b5090565b600062000edf62000ed984620016ef565b620016bb565b90508281526020810184848401111562000ef857600080fd5b62000f05848285620018c0565b509392505050565b600062000f2462000f1e8462001722565b620016bb565b90508281526020810184848401111562000f3d57600080fd5b62000f4a848285620018c0565b509392505050565b60008151905062000f638162001aca565b92915050565b60008151905062000f7a8162001ae4565b92915050565b600082601f83011262000f9257600080fd5b815162000fa484826020860162000ec8565b91505092915050565b600082601f83011262000fbf57600080fd5b815162000fd184826020860162000f0d565b91505092915050565b60006020828403121562000fed57600080fd5b600062000ffd8482850162000f69565b91505092915050565b60008060008060008060008060006101208a8c0312156200102657600080fd5b60008a015167ffffffffffffffff8111156200104157600080fd5b6200104f8c828d0162000fad565b9950506020620010628c828d0162000f52565b9850506040620010758c828d0162000f52565b9750506060620010888c828d0162000f52565b96505060808a015167ffffffffffffffff811115620010a657600080fd5b620010b48c828d0162000f80565b95505060a08a015167ffffffffffffffff811115620010d257600080fd5b620010e08c828d0162000f80565b94505060c08a015167ffffffffffffffff811115620010fe57600080fd5b6200110c8c828d0162000f80565b93505060e08a015167ffffffffffffffff8111156200112a57600080fd5b620011388c828d0162000f80565b9250506101008a015167ffffffffffffffff8111156200115757600080fd5b620011658c828d0162000f80565b9150509295985092959850929598565b620011808162001856565b82525050565b6000620011938262001755565b6200119f81856200176b565b9350620011b1818560208601620018c0565b620011bc81620019e8565b840191505092915050565b6000620011d48262001760565b620011e081856200177c565b9350620011f2818560208601620018c0565b620011fd81620019e8565b840191505092915050565b6000620012158262001760565b6200122181856200178d565b935062001233818560208601620018c0565b80840191505092915050565b60006200124e6034836200177c565b91507f455243313135353a207472616e7366657220746f206e6f6e204552433131353560008301527f526563656976657220696d706c656d656e7465720000000000000000000000006020830152604082019050919050565b6000620012b66020836200177c565b91507f537472696e67733a20686578206c656e67746820696e73756666696369656e746000830152602082019050919050565b6000620012f86028836200177c565b91507f455243313135353a204552433131353552656365697665722072656a6563746560008301527f6420746f6b656e730000000000000000000000000000000000000000000000006020830152604082019050919050565b6000620013606026836200177c565b91507f4f776e61626c653a206e6577206f776e657220697320746865207a65726f206160008301527f64647265737300000000000000000000000000000000000000000000000000006020830152604082019050919050565b6000620013c86020836200177c565b91507f4f776e61626c653a2063616c6c6572206973206e6f7420746865206f776e65726000830152602082019050919050565b60006200140a6017836200178d565b91507f416363657373436f6e74726f6c3a206163636f756e74200000000000000000006000830152601782019050919050565b60006200144c6021836200177c565b91507f455243313135353a206d696e7420746f20746865207a65726f2061646472657360008301527f73000000000000000000000000000000000000000000000000000000000000006020830152604082019050919050565b6000620014b46011836200178d565b91507f206973206d697373696e6720726f6c65200000000000000000000000000000006000830152601182019050919050565b620014f281620018b6565b82525050565b60006200150582620013fb565b915062001513828562001208565b91506200152082620014a5565b91506200152e828462001208565b91508190509392505050565b600060a08201905062001551600083018862001175565b62001560602083018762001175565b6200156f6040830186620014e7565b6200157e6060830185620014e7565b818103608083015262001592818462001186565b90509695505050505050565b60006020820190508181036000830152620015ba8184620011c7565b905092915050565b60006020820190508181036000830152620015dd816200123f565b9050919050565b60006020820190508181036000830152620015ff81620012a7565b9050919050565b600060208201905081810360008301526200162181620012e9565b9050919050565b60006020820190508181036000830152620016438162001351565b9050919050565b600060208201905081810360008301526200166581620013b9565b9050919050565b6000602082019050818103600083015262001687816200143d565b9050919050565b6000604082019050620016a56000830185620014e7565b620016b46020830184620014e7565b9392505050565b6000604051905081810181811067ffffffffffffffff82111715620016e557620016e4620019b9565b5b8060405250919050565b600067ffffffffffffffff8211156200170d576200170c620019b9565b5b601f19601f8301169050602081019050919050565b600067ffffffffffffffff82111562001740576200173f620019b9565b5b601f19601f8301169050602081019050919050565b600081519050919050565b600081519050919050565b600082825260208201905092915050565b600082825260208201905092915050565b600081905092915050565b6000620017a582620018b6565b9150620017b283620018b6565b9250827fffffffffffffffffffffffffffffffffffffffffffffffffffffffffffffffff03821115620017ea57620017e96200195b565b5b828201905092915050565b60006200180282620018b6565b91506200180f83620018b6565b9250817fffffffffffffffffffffffffffffffffffffffffffffffffffffffffffffffff04831182151516156200184b576200184a6200195b565b5b828202905092915050565b6000620018638262001896565b9050919050565b60007fffffffff0000000000000000000000000000000000000000000000000000000082169050919050565b600073ffffffffffffffffffffffffffffffffffffffff82169050919050565b6000819050919050565b60005b83811015620018e0578082015181840152602081019050620018c3565b83811115620018f0576000848401525b50505050565b60006200190382620018b6565b915060008214156200191a57620019196200195b565b5b600182039050919050565b600060028204905060018216806200193e57607f821691505b602082108114156200195557620019546200198a565b5b50919050565b7f4e487b7100000000000000000000000000000000000000000000000000000000600052601160045260246000fd5b7f4e487b7100000000000000000000000000000000000000000000000000000000600052602260045260246000fd5b7f4e487b7100000000000000000000000000000000000000000000000000000000600052604160045260246000fd5b6000601f19601f8301169050919050565b60008160e01c9050919050565b600060443d101562001a185762001ac7565b60046000803e62001a2b600051620019f9565b6308c379a0811462001a3e575062001ac7565b60405160043d036004823e80513d602482011167ffffffffffffffff8211171562001a6c5750505062001ac7565b808201805167ffffffffffffffff81111562001a8d57505050505062001ac7565b8060208301013d850181111562001aaa5750505050505062001ac7565b62001ab582620019e8565b60208401016040528296505050505050505b90565b62001ad58162001856565b811462001ae157600080fd5b50565b62001aef816200186a565b811462001afb57600080fd5b50565b6148c98062001b0e6000396000f3fe60806040526004361061027c5760003560e01c80638d6cc56d1161014f578063c6750994116100c1578063e985e9c51161007a578063e985e9c51461092e578063eccf8e2e1461096b578063ef66c18214610996578063f242432a146109c1578063f2fde38b146109ea578063ff5ddc1114610a135761027c565b8063c67509941461084f578063cad111561461087a578063cce3727a146108a5578063d547741f146108d0578063ddc3dd4b146108f9578063e4869f93146109035761027c565b8063a22cb46511610113578063a22cb4651461073f578063a2ccccbd14610768578063ad76e2e314610791578063b03de276146107bc578063b45c0918146107e7578063c0cb4707146108125761027c565b80638d6cc56d146106585780638da5cb5b1461068157806391d14854146106ac578063a109638f146106e9578063a217fddf146107145761027c565b806336757944116101f35780636145ca02116101ac5780636145ca02146105795780636c0360eb146105a4578063715018a6146105cf57806373988316146105e657806378c2e7f4146106115780638d0ab0061461061b5761027c565b806336757944146104795780633bb0be77146104a45780634207369a146104cf5780634ce58f44146104e65780634d49cc51146105115780634e1273f41461053c5761027c565b80630e89341c116102455780630e89341c1461035b578063217b7add14610398578063248a9ca3146103c15780632eb2c2d6146103fe5780632f2ff15d1461042757806336568abe146104505761027c565b8062fdd58e1461028157806301ffc9a7146102be5780630504e6ed146102fb5780630c610a7b146103265780630d10907014610330575b600080fd5b34801561028d57600080fd5b506102a860048036038101906102a391906134a9565b610a3e565b6040516102b591906142d1565b60405180910390f35b3480156102ca57600080fd5b506102e560048036038101906102e091906135fb565b610b07565b6040516102f29190614079565b60405180910390f35b34801561030757600080fd5b50610310610b19565b60405161031d91906142d1565b60405180910390f35b61032e610b1e565b005b34801561033c57600080fd5b50610345610c0c565b6040516103529190614094565b60405180910390f35b34801561036757600080fd5b50610382600480360381019061037d919061364d565b610c30565b60405161038f91906140af565b60405180910390f35b3480156103a457600080fd5b506103bf60048036038101906103ba9190613551565b610cc4565b005b3480156103cd57600080fd5b506103e860048036038101906103e39190613596565b610d56565b6040516103f59190614094565b60405180910390f35b34801561040a57600080fd5b506104256004803603810190610420919061331f565b610d76565b005b34801561043357600080fd5b5061044e600480360381019061044991906135bf565b610e17565b005b34801561045c57600080fd5b50610477600480360381019061047291906135bf565b610e40565b005b34801561048557600080fd5b5061048e610ec3565b60405161049b91906142d1565b60405180910390f35b3480156104b057600080fd5b506104b9610ec8565b6040516104c691906142d1565b60405180910390f35b3480156104db57600080fd5b506104e4610ece565b005b3480156104f257600080fd5b506104fb610f67565b60405161050891906142d1565b60405180910390f35b34801561051d57600080fd5b50610526610f6c565b60405161053391906142d1565b60405180910390f35b34801561054857600080fd5b50610563600480360381019061055e91906134e5565b610f72565b6040516105709190614020565b60405180910390f35b34801561058557600080fd5b5061058e611123565b60405161059b9190614079565b60405180910390f35b3480156105b057600080fd5b506105b9611136565b6040516105c691906140af565b60405180910390f35b3480156105db57600080fd5b506105e46111c8565b005b3480156105f257600080fd5b506105fb611250565b60405161060891906142d1565b60405180910390f35b610619611256565b005b34801561062757600080fd5b50610642600480360381019061063d919061364d565b611344565b60405161064f91906142d1565b60405180910390f35b34801561066457600080fd5b5061067f600480360381019061067a919061364d565b611368565b005b34801561068d57600080fd5b506106966113ee565b6040516106a39190613f43565b60405180910390f35b3480156106b857600080fd5b506106d360048036038101906106ce91906135bf565b611418565b6040516106e09190614079565b60405180910390f35b3480156106f557600080fd5b506106fe611483565b60405161070b91906142d1565b60405180910390f35b34801561072057600080fd5b50610729611489565b6040516107369190614094565b60405180910390f35b34801561074b57600080fd5b506107666004803603810190610761919061346d565b611490565b005b34801561077457600080fd5b5061078f600480360381019061078a9190613676565b611611565b005b34801561079d57600080fd5b506107a6611720565b6040516107b391906142d1565b60405180910390f35b3480156107c857600080fd5b506107d1611725565b6040516107de91906142d1565b60405180910390f35b3480156107f357600080fd5b506107fc61172a565b60405161080991906142d1565b60405180910390f35b34801561081e57600080fd5b506108396004803603810190610834919061364d565b611730565b60405161084691906142d1565b60405180910390f35b34801561085b57600080fd5b50610864611754565b6040516108719190614094565b60405180910390f35b34801561088657600080fd5b5061088f611778565b60405161089c91906142d1565b60405180910390f35b3480156108b157600080fd5b506108ba61177d565b6040516108c791906142d1565b60405180910390f35b3480156108dc57600080fd5b506108f760048036038101906108f291906135bf565b611782565b005b6109016117ab565b005b34801561090f57600080fd5b50610918611899565b60405161092591906142d1565b60405180910390f35b34801561093a57600080fd5b50610955600480360381019061095091906132e3565b61189f565b6040516109629190614079565b60405180910390f35b34801561097757600080fd5b50610980611933565b60405161098d91906142d1565b60405180910390f35b3480156109a257600080fd5b506109ab611938565b6040516109b891906142d1565b60405180910390f35b3480156109cd57600080fd5b506109e860048036038101906109e391906133de565b61193d565b005b3480156109f657600080fd5b50610a116004803603810190610a0c91906132ba565b6119de565b005b348015610a1f57600080fd5b50610a28611ad6565b604051610a3591906142d1565b60405180910390f35b60008073ffffffffffffffffffffffffffffffffffffffff168373ffffffffffffffffffffffffffffffffffffffff161415610aaf576040517f08c379a0000000000000000000000000000000000000000000000000000000008152600401610aa690614131565b60405180910390fd5b60008083815260200190815260200160002060008473ffffffffffffffffffffffffffffffffffffffff1673ffffffffffffffffffffffffffffffffffffffff16815260200190815260200160002054905092915050565b6000610b1282611de9565b9050919050565b600881565b601160019054906101000a900473ffffffffffffffffffffffffffffffffffffffff1673ffffffffffffffffffffffffffffffffffffffff163373ffffffffffffffffffffffffffffffffffffffff1614610b7857600080fd5b610ba27f4ba1c0b393f1850d2175b0f2d7c2d42c3f898b0037de3434dbcee26a67c6df6633611418565b610be1576040517f08c379a0000000000000000000000000000000000000000000000000000000008152600401610bd890614191565b60405180910390fd5b610c0a336005600d5434610bf591906144a0565b60405180602001604052806000815250611e63565b565b7f4ba1c0b393f1850d2175b0f2d7c2d42c3f898b0037de3434dbcee26a67c6df6681565b606060028054610c3f90614615565b80601f0160208091040260200160405190810160405280929190818152602001828054610c6b90614615565b8015610cb85780601f10610c8d57610100808354040283529160200191610cb8565b820191906000526020600020905b815481529060010190602001808311610c9b57829003601f168201915b50505050509050919050565b610ccc611ff9565b73ffffffffffffffffffffffffffffffffffffffff16610cea6113ee565b73ffffffffffffffffffffffffffffffffffffffff1614610d40576040517f08c379a0000000000000000000000000000000000000000000000000000000008152600401610d3790614211565b60405180910390fd5b818160109190610d51929190612ec3565b505050565b600060046000838152602001908152602001600020600101549050919050565b610d7e611ff9565b73ffffffffffffffffffffffffffffffffffffffff168573ffffffffffffffffffffffffffffffffffffffff161480610dc45750610dc385610dbe611ff9565b61189f565b5b610e03576040517f08c379a0000000000000000000000000000000000000000000000000000000008152600401610dfa906141d1565b60405180910390fd5b610e108585858585612001565b5050505050565b610e2082610d56565b610e3181610e2c611ff9565b612361565b610e3b83836123fe565b505050565b610e48611ff9565b73ffffffffffffffffffffffffffffffffffffffff168173ffffffffffffffffffffffffffffffffffffffff1614610eb5576040517f08c379a0000000000000000000000000000000000000000000000000000000008152600401610eac906142b1565b60405180910390fd5b610ebf82826124df565b5050565b600681565b600a5481565b610ed6611ff9565b73ffffffffffffffffffffffffffffffffffffffff16610ef46113ee565b73ffffffffffffffffffffffffffffffffffffffff1614610f4a576040517f08c379a0000000000000000000000000000000000000000000000000000000008152600401610f4190614211565b60405180910390fd5b6001601160006101000a81548160ff021916908315150217905550565b600781565b600f5481565b60608151835114610fb8576040517f08c379a0000000000000000000000000000000000000000000000000000000008152600401610faf90614251565b60405180910390fd5b6000835167ffffffffffffffff811115610ffb577f4e487b7100000000000000000000000000000000000000000000000000000000600052604160045260246000fd5b6040519080825280602002602001820160405280156110295781602001602082028036833780820191505090505b50905060005b8451811015611118576110c2858281518110611074577f4e487b7100000000000000000000000000000000000000000000000000000000600052603260045260246000fd5b60200260200101518583815181106110b5577f4e487b7100000000000000000000000000000000000000000000000000000000600052603260045260246000fd5b6020026020010151610a3e565b8282815181106110fb577f4e487b7100000000000000000000000000000000000000000000000000000000600052603260045260246000fd5b6020026020010181815250508061111190614647565b905061102f565b508091505092915050565b601160009054906101000a900460ff1681565b60606005805461114590614615565b80601f016020809104026020016040519081016040528092919081815260200182805461117190614615565b80156111be5780601f10611193576101008083540402835291602001916111be565b820191906000526020600020905b8154815290600101906020018083116111a157829003601f168201915b5050505050905090565b6111d0611ff9565b73ffffffffffffffffffffffffffffffffffffffff166111ee6113ee565b73ffffffffffffffffffffffffffffffffffffffff1614611244576040517f08c379a000000000000000000000000000000000000000000000000000000000815260040161123b90614211565b60405180910390fd5b61124e60006125c1565b565b600b5481565b601160019054906101000a900473ffffffffffffffffffffffffffffffffffffffff1673ffffffffffffffffffffffffffffffffffffffff163373ffffffffffffffffffffffffffffffffffffffff16146112b057600080fd5b6112da7f4ba1c0b393f1850d2175b0f2d7c2d42c3f898b0037de3434dbcee26a67c6df6633611418565b611319576040517f08c379a000000000000000000000000000000000000000000000000000000000815260040161131090614191565b60405180910390fd5b611342336006600e543461132d91906144a0565b60405180602001604052806000815250611e63565b565b6007818154811061135457600080fd5b906000526020600020016000915090505481565b611370611ff9565b73ffffffffffffffffffffffffffffffffffffffff1661138e6113ee565b73ffffffffffffffffffffffffffffffffffffffff16146113e4576040517f08c379a00000000000000000000000000000000000000000000000000000000081526004016113db90614211565b60405180910390fd5b80600d8190555050565b6000600360009054906101000a900473ffffffffffffffffffffffffffffffffffffffff16905090565b60006004600084815260200190815260200160002060000160008373ffffffffffffffffffffffffffffffffffffffff1673ffffffffffffffffffffffffffffffffffffffff16815260200190815260200160002060009054906101000a900460ff16905092915050565b60095481565b6000801b81565b8173ffffffffffffffffffffffffffffffffffffffff166114af611ff9565b73ffffffffffffffffffffffffffffffffffffffff161415611506576040517f08c379a00000000000000000000000000000000000000000000000000000000081526004016114fd90614231565b60405180910390fd5b8060016000611513611ff9565b73ffffffffffffffffffffffffffffffffffffffff1673ffffffffffffffffffffffffffffffffffffffff16815260200190815260200160002060008473ffffffffffffffffffffffffffffffffffffffff1673ffffffffffffffffffffffffffffffffffffffff16815260200190815260200160002060006101000a81548160ff0219169083151502179055508173ffffffffffffffffffffffffffffffffffffffff166115c0611ff9565b73ffffffffffffffffffffffffffffffffffffffff167f17307eab39ab6107e8899845ad3d59bd9653f200f220920489ca2b5937696c31836040516116059190614079565b60405180910390a35050565b611619611ff9565b73ffffffffffffffffffffffffffffffffffffffff166116376113ee565b73ffffffffffffffffffffffffffffffffffffffff161461168d576040517f08c379a000000000000000000000000000000000000000000000000000000000815260040161168490614211565b60405180910390fd5b82156116c15760068690806001815401808255809150506001900390600052602060002001600090919091909150556116eb565b60078690806001815401808255809150506001900390600052602060002001600090919091909150555b848460086000898152602001908152602001600020919061170d929190612f71565b506117188282610cc4565b505050505050565b600081565b600581565b600e5481565b6006818154811061174057600080fd5b906000526020600020016000915090505481565b7fa8b4d5759b170d975531a20afee42f091fe675efe9b17d8afd8b4cd6be8eb14b81565b600481565b600381565b61178b82610d56565b61179c81611797611ff9565b612361565b6117a683836124df565b505050565b601160019054906101000a900473ffffffffffffffffffffffffffffffffffffffff1673ffffffffffffffffffffffffffffffffffffffff163373ffffffffffffffffffffffffffffffffffffffff161461180557600080fd5b61182f7f4ba1c0b393f1850d2175b0f2d7c2d42c3f898b0037de3434dbcee26a67c6df6633611418565b61186e576040517f08c379a000000000000000000000000000000000000000000000000000000000815260040161186590614191565b60405180910390fd5b611897336007600f543461188291906144a0565b60405180602001604052806000815250611e63565b565b600c5481565b6000600160008473ffffffffffffffffffffffffffffffffffffffff1673ffffffffffffffffffffffffffffffffffffffff16815260200190815260200160002060008373ffffffffffffffffffffffffffffffffffffffff1673ffffffffffffffffffffffffffffffffffffffff16815260200190815260200160002060009054906101000a900460ff16905092915050565b600281565b600181565b611945611ff9565b73ffffffffffffffffffffffffffffffffffffffff168573ffffffffffffffffffffffffffffffffffffffff16148061198b575061198a85611985611ff9565b61189f565b5b6119ca576040517f08c379a00000000000000000000000000000000000000000000000000000000081526004016119c190614171565b60405180910390fd5b6119d78585858585612687565b5050505050565b6119e6611ff9565b73ffffffffffffffffffffffffffffffffffffffff16611a046113ee565b73ffffffffffffffffffffffffffffffffffffffff1614611a5a576040517f08c379a0000000000000000000000000000000000000000000000000000000008152600401611a5190614211565b60405180910390fd5b600073ffffffffffffffffffffffffffffffffffffffff168173ffffffffffffffffffffffffffffffffffffffff161415611aca576040517f08c379a0000000000000000000000000000000000000000000000000000000008152600401611ac190614151565b60405180910390fd5b611ad3816125c1565b50565b600d5481565b600080823b905060008111915050919050565b606060006002836002611b0291906144d1565b611b0c919061444a565b67ffffffffffffffff811115611b4b577f4e487b7100000000000000000000000000000000000000000000000000000000600052604160045260246000fd5b6040519080825280601f01601f191660200182016040528015611b7d5781602001600182028036833780820191505090505b5090507f300000000000000000000000000000000000000000000000000000000000000081600081518110611bdb577f4e487b7100000000000000000000000000000000000000000000000000000000600052603260045260246000fd5b60200101907effffffffffffffffffffffffffffffffffffffffffffffffffffffffffffff1916908160001a9053507f780000000000000000000000000000000000000000000000000000000000000081600181518110611c65577f4e487b7100000000000000000000000000000000000000000000000000000000600052603260045260246000fd5b60200101907effffffffffffffffffffffffffffffffffffffffffffffffffffffffffffff1916908160001a90535060006001846002611ca591906144d1565b611caf919061444a565b90505b6001811115611d9b577f3031323334353637383961626364656600000000000000000000000000000000600f861660108110611d17577f4e487b7100000000000000000000000000000000000000000000000000000000600052603260045260246000fd5b1a60f81b828281518110611d54577f4e487b7100000000000000000000000000000000000000000000000000000000600052603260045260246000fd5b60200101907effffffffffffffffffffffffffffffffffffffffffffffffffffffffffffff1916908160001a905350600485901c945080611d94906145eb565b9050611cb2565b5060008414611ddf576040517f08c379a0000000000000000000000000000000000000000000000000000000008152600401611dd6906140f1565b60405180910390fd5b8091505092915050565b60007f7965db0b000000000000000000000000000000000000000000000000000000007bffffffffffffffffffffffffffffffffffffffffffffffffffffffff1916827bffffffffffffffffffffffffffffffffffffffffffffffffffffffff19161480611e5c5750611e5b82612909565b5b9050919050565b600073ffffffffffffffffffffffffffffffffffffffff168473ffffffffffffffffffffffffffffffffffffffff161415611ed3576040517f08c379a0000000000000000000000000000000000000000000000000000000008152600401611eca90614291565b60405180910390fd5b6000611edd611ff9565b9050611efe81600087611eef886129eb565b611ef8886129eb565b87612ab1565b8260008086815260200190815260200160002060008773ffffffffffffffffffffffffffffffffffffffff1673ffffffffffffffffffffffffffffffffffffffff1681526020019081526020016000206000828254611f5d919061444a565b925050819055508473ffffffffffffffffffffffffffffffffffffffff16600073ffffffffffffffffffffffffffffffffffffffff168273ffffffffffffffffffffffffffffffffffffffff167fc3d58168c5ae7397731d063d5bbf3d657854427343f4c083240f7aacaa2d0f628787604051611fdb9291906142ec565b60405180910390a4611ff281600087878787612ab9565b5050505050565b600033905090565b8151835114612045576040517f08c379a000000000000000000000000000000000000000000000000000000000815260040161203c90614271565b60405180910390fd5b600073ffffffffffffffffffffffffffffffffffffffff168473ffffffffffffffffffffffffffffffffffffffff1614156120b5576040517f08c379a00000000000000000000000000000000000000000000000000000000081526004016120ac906141b1565b60405180910390fd5b60006120bf611ff9565b90506120cf818787878787612ab1565b60005b84518110156122cc576000858281518110612116577f4e487b7100000000000000000000000000000000000000000000000000000000600052603260045260246000fd5b60200260200101519050600085838151811061215b577f4e487b7100000000000000000000000000000000000000000000000000000000600052603260045260246000fd5b60200260200101519050600080600084815260200190815260200160002060008b73ffffffffffffffffffffffffffffffffffffffff1673ffffffffffffffffffffffffffffffffffffffff168152602001908152602001600020549050818110156121fc576040517f08c379a00000000000000000000000000000000000000000000000000000000081526004016121f3906141f1565b60405180910390fd5b81810360008085815260200190815260200160002060008c73ffffffffffffffffffffffffffffffffffffffff1673ffffffffffffffffffffffffffffffffffffffff168152602001908152602001600020819055508160008085815260200190815260200160002060008b73ffffffffffffffffffffffffffffffffffffffff1673ffffffffffffffffffffffffffffffffffffffff16815260200190815260200160002060008282546122b1919061444a565b92505081905550505050806122c590614647565b90506120d2565b508473ffffffffffffffffffffffffffffffffffffffff168673ffffffffffffffffffffffffffffffffffffffff168273ffffffffffffffffffffffffffffffffffffffff167f4a39dc06d4c0dbc64b70af90fd698a233a518aa5d07e595d983b8c0526c8f7fb8787604051612343929190614042565b60405180910390a4612359818787878787612c89565b505050505050565b61236b8282611418565b6123fa576123908173ffffffffffffffffffffffffffffffffffffffff166014611aef565b61239e8360001c6020611aef565b6040516020016123af929190613f09565b6040516020818303038152906040526040517f08c379a00000000000000000000000000000000000000000000000000000000081526004016123f191906140af565b60405180910390fd5b5050565b6124088282611418565b6124db5760016004600084815260200190815260200160002060000160008373ffffffffffffffffffffffffffffffffffffffff1673ffffffffffffffffffffffffffffffffffffffff16815260200190815260200160002060006101000a81548160ff021916908315150217905550612480611ff9565b73ffffffffffffffffffffffffffffffffffffffff168173ffffffffffffffffffffffffffffffffffffffff16837f2f8788117e7eff1d82e926ec794901d17c78024a50270940304540a733656f0d60405160405180910390a45b5050565b6124e98282611418565b156125bd5760006004600084815260200190815260200160002060000160008373ffffffffffffffffffffffffffffffffffffffff1673ffffffffffffffffffffffffffffffffffffffff16815260200190815260200160002060006101000a81548160ff021916908315150217905550612562611ff9565b73ffffffffffffffffffffffffffffffffffffffff168173ffffffffffffffffffffffffffffffffffffffff16837ff6391f5c32d9c69d2a47ea670b442974b53935d1edc7fd64eb21e047a839171b60405160405180910390a45b5050565b6000600360009054906101000a900473ffffffffffffffffffffffffffffffffffffffff16905081600360006101000a81548173ffffffffffffffffffffffffffffffffffffffff021916908373ffffffffffffffffffffffffffffffffffffffff1602179055508173ffffffffffffffffffffffffffffffffffffffff168173ffffffffffffffffffffffffffffffffffffffff167f8be0079c531659141344cd1fd0a4f28419497f9722a3daafe3b4186f6b6457e060405160405180910390a35050565b600073ffffffffffffffffffffffffffffffffffffffff168473ffffffffffffffffffffffffffffffffffffffff1614156126f7576040517f08c379a00000000000000000000000000000000000000000000000000000000081526004016126ee906141b1565b60405180910390fd5b6000612701611ff9565b9050612721818787612712886129eb565b61271b886129eb565b87612ab1565b600080600086815260200190815260200160002060008873ffffffffffffffffffffffffffffffffffffffff1673ffffffffffffffffffffffffffffffffffffffff168152602001908152602001600020549050838110156127b8576040517f08c379a00000000000000000000000000000000000000000000000000000000081526004016127af906141f1565b60405180910390fd5b83810360008087815260200190815260200160002060008973ffffffffffffffffffffffffffffffffffffffff1673ffffffffffffffffffffffffffffffffffffffff168152602001908152602001600020819055508360008087815260200190815260200160002060008873ffffffffffffffffffffffffffffffffffffffff1673ffffffffffffffffffffffffffffffffffffffff168152602001908152602001600020600082825461286d919061444a565b925050819055508573ffffffffffffffffffffffffffffffffffffffff168773ffffffffffffffffffffffffffffffffffffffff168373ffffffffffffffffffffffffffffffffffffffff167fc3d58168c5ae7397731d063d5bbf3d657854427343f4c083240f7aacaa2d0f6288886040516128ea9291906142ec565b60405180910390a4612900828888888888612ab9565b50505050505050565b60007fd9b67a26000000000000000000000000000000000000000000000000000000007bffffffffffffffffffffffffffffffffffffffffffffffffffffffff1916827bffffffffffffffffffffffffffffffffffffffffffffffffffffffff191614806129d457507f0e89341c000000000000000000000000000000000000000000000000000000007bffffffffffffffffffffffffffffffffffffffffffffffffffffffff1916827bffffffffffffffffffffffffffffffffffffffffffffffffffffffff1916145b806129e457506129e382612e59565b5b9050919050565b60606000600167ffffffffffffffff811115612a30577f4e487b7100000000000000000000000000000000000000000000000000000000600052604160045260246000fd5b604051908082528060200260200182016040528015612a5e5781602001602082028036833780820191505090505b5090508281600081518110612a9c577f4e487b7100000000000000000000000000000000000000000000000000000000600052603260045260246000fd5b60200260200101818152505080915050919050565b505050505050565b612ad88473ffffffffffffffffffffffffffffffffffffffff16611adc565b15612c81578373ffffffffffffffffffffffffffffffffffffffff1663f23a6e6187878686866040518663ffffffff1660e01b8152600401612b1e959493929190613fc6565b602060405180830381600087803b158015612b3857600080fd5b505af1925050508015612b6957506040513d601f19601f82011682018060405250810190612b669190613624565b60015b612bf857612b7561476a565b80612b805750612bbd565b806040517f08c379a0000000000000000000000000000000000000000000000000000000008152600401612bb491906140af565b60405180910390fd5b6040517f08c379a0000000000000000000000000000000000000000000000000000000008152600401612bef906140d1565b60405180910390fd5b63f23a6e6160e01b7bffffffffffffffffffffffffffffffffffffffffffffffffffffffff1916817bffffffffffffffffffffffffffffffffffffffffffffffffffffffff191614612c7f576040517f08c379a0000000000000000000000000000000000000000000000000000000008152600401612c7690614111565b60405180910390fd5b505b505050505050565b612ca88473ffffffffffffffffffffffffffffffffffffffff16611adc565b15612e51578373ffffffffffffffffffffffffffffffffffffffff1663bc197c8187878686866040518663ffffffff1660e01b8152600401612cee959493929190613f5e565b602060405180830381600087803b158015612d0857600080fd5b505af1925050508015612d3957506040513d601f19601f82011682018060405250810190612d369190613624565b60015b612dc857612d4561476a565b80612d505750612d8d565b806040517f08c379a0000000000000000000000000000000000000000000000000000000008152600401612d8491906140af565b60405180910390fd5b6040517f08c379a0000000000000000000000000000000000000000000000000000000008152600401612dbf906140d1565b60405180910390fd5b63bc197c8160e01b7bffffffffffffffffffffffffffffffffffffffffffffffffffffffff1916817bffffffffffffffffffffffffffffffffffffffffffffffffffffffff191614612e4f576040517f08c379a0000000000000000000000000000000000000000000000000000000008152600401612e4690614111565b60405180910390fd5b505b505050505050565b60007f01ffc9a7000000000000000000000000000000000000000000000000000000007bffffffffffffffffffffffffffffffffffffffffffffffffffffffff1916827bffffffffffffffffffffffffffffffffffffffffffffffffffffffff1916149050919050565b82805482825590600052602060002090600f01601090048101928215612f605791602002820160005b83821115612f3057833561ffff1683826101000a81548161ffff021916908361ffff1602179055509260200192600201602081600101049283019260010302612eec565b8015612f5e5782816101000a81549061ffff0219169055600201602081600101049283019260010302612f30565b505b509050612f6d9190612ff7565b5090565b828054612f7d90614615565b90600052602060002090601f016020900481019282612f9f5760008555612fe6565b82601f10612fb857803560ff1916838001178555612fe6565b82800160010185558215612fe6579182015b82811115612fe5578235825591602001919060010190612fca565b5b509050612ff39190612ff7565b5090565b5b80821115613010576000816000905550600101612ff8565b5090565b600061302761302284614346565b614315565b9050808382526020820190508285602086028201111561304657600080fd5b60005b85811015613076578161305c888261312a565b845260208401935060208301925050600181019050613049565b5050509392505050565b600061309361308e84614372565b614315565b905080838252602082019050828560208602820111156130b257600080fd5b60005b858110156130e257816130c888826132a5565b8452602084019350602083019250506001810190506130b5565b5050509392505050565b60006130ff6130fa8461439e565b614315565b90508281526020810184848401111561311757600080fd5b6131228482856145a9565b509392505050565b60008135905061313981614820565b92915050565b600082601f83011261315057600080fd5b8135613160848260208601613014565b91505092915050565b60008083601f84011261317b57600080fd5b8235905067ffffffffffffffff81111561319457600080fd5b6020830191508360208202830111156131ac57600080fd5b9250929050565b600082601f8301126131c457600080fd5b81356131d4848260208601613080565b91505092915050565b6000813590506131ec81614837565b92915050565b6000813590506132018161484e565b92915050565b60008135905061321681614865565b92915050565b60008151905061322b81614865565b92915050565b600082601f83011261324257600080fd5b81356132528482602086016130ec565b91505092915050565b60008083601f84011261326d57600080fd5b8235905067ffffffffffffffff81111561328657600080fd5b60208301915083600182028301111561329e57600080fd5b9250929050565b6000813590506132b48161487c565b92915050565b6000602082840312156132cc57600080fd5b60006132da8482850161312a565b91505092915050565b600080604083850312156132f657600080fd5b60006133048582860161312a565b92505060206133158582860161312a565b9150509250929050565b600080600080600060a0868803121561333757600080fd5b60006133458882890161312a565b95505060206133568882890161312a565b945050604086013567ffffffffffffffff81111561337357600080fd5b61337f888289016131b3565b935050606086013567ffffffffffffffff81111561339c57600080fd5b6133a8888289016131b3565b925050608086013567ffffffffffffffff8111156133c557600080fd5b6133d188828901613231565b9150509295509295909350565b600080600080600060a086880312156133f657600080fd5b60006134048882890161312a565b95505060206134158882890161312a565b9450506040613426888289016132a5565b9350506060613437888289016132a5565b925050608086013567ffffffffffffffff81111561345457600080fd5b61346088828901613231565b9150509295509295909350565b6000806040838503121561348057600080fd5b600061348e8582860161312a565b925050602061349f858286016131dd565b9150509250929050565b600080604083850312156134bc57600080fd5b60006134ca8582860161312a565b92505060206134db858286016132a5565b9150509250929050565b600080604083850312156134f857600080fd5b600083013567ffffffffffffffff81111561351257600080fd5b61351e8582860161313f565b925050602083013567ffffffffffffffff81111561353b57600080fd5b613547858286016131b3565b9150509250929050565b6000806020838503121561356457600080fd5b600083013567ffffffffffffffff81111561357e57600080fd5b61358a85828601613169565b92509250509250929050565b6000602082840312156135a857600080fd5b60006135b6848285016131f2565b91505092915050565b600080604083850312156135d257600080fd5b60006135e0858286016131f2565b92505060206135f18582860161312a565b9150509250929050565b60006020828403121561360d57600080fd5b600061361b84828501613207565b91505092915050565b60006020828403121561363657600080fd5b60006136448482850161321c565b91505092915050565b60006020828403121561365f57600080fd5b600061366d848285016132a5565b91505092915050565b6000806000806000806080878903121561368f57600080fd5b600061369d89828a016132a5565b965050602087013567ffffffffffffffff8111156136ba57600080fd5b6136c689828a0161325b565b955095505060406136d989828a016131dd565b935050606087013567ffffffffffffffff8111156136f657600080fd5b61370289828a01613169565b92509250509295509295509295565b600061371d8383613eeb565b60208301905092915050565b6137328161452b565b82525050565b6000613743826143de565b61374d818561440c565b9350613758836143ce565b8060005b838110156137895781516137708882613711565b975061377b836143ff565b92505060018101905061375c565b5085935050505092915050565b61379f8161453d565b82525050565b6137ae81614549565b82525050565b60006137bf826143e9565b6137c9818561441d565b93506137d98185602086016145b8565b6137e28161474c565b840191505092915050565b60006137f8826143f4565b613802818561442e565b93506138128185602086016145b8565b61381b8161474c565b840191505092915050565b6000613831826143f4565b61383b818561443f565b935061384b8185602086016145b8565b80840191505092915050565b600061386460348361442e565b91507f455243313135353a207472616e7366657220746f206e6f6e204552433131353560008301527f526563656976657220696d706c656d656e7465720000000000000000000000006020830152604082019050919050565b60006138ca60208361442e565b91507f537472696e67733a20686578206c656e67746820696e73756666696369656e746000830152602082019050919050565b600061390a60288361442e565b91507f455243313135353a204552433131353552656365697665722072656a6563746560008301527f6420746f6b656e730000000000000000000000000000000000000000000000006020830152604082019050919050565b6000613970602b8361442e565b91507f455243313135353a2062616c616e636520717565727920666f7220746865207a60008301527f65726f20616464726573730000000000000000000000000000000000000000006020830152604082019050919050565b60006139d660268361442e565b91507f4f776e61626c653a206e6577206f776e657220697320746865207a65726f206160008301527f64647265737300000000000000000000000000000000000000000000000000006020830152604082019050919050565b6000613a3c60298361442e565b91507f455243313135353a2063616c6c6572206973206e6f74206f776e6572206e6f7260008301527f20617070726f76656400000000000000000000000000000000000000000000006020830152604082019050919050565b6000613aa260238361442e565b91507f43616c6c6572206973206e6f7420612054524541535552595f41444d494e5f5260008301527f4f4c4500000000000000000000000000000000000000000000000000000000006020830152604082019050919050565b6000613b0860258361442e565b91507f455243313135353a207472616e7366657220746f20746865207a65726f20616460008301527f64726573730000000000000000000000000000000000000000000000000000006020830152604082019050919050565b6000613b6e60328361442e565b91507f455243313135353a207472616e736665722063616c6c6572206973206e6f742060008301527f6f776e6572206e6f7220617070726f76656400000000000000000000000000006020830152604082019050919050565b6000613bd4602a8361442e565b91507f455243313135353a20696e73756666696369656e742062616c616e636520666f60008301527f72207472616e73666572000000000000000000000000000000000000000000006020830152604082019050919050565b6000613c3a60208361442e565b91507f4f776e61626c653a2063616c6c6572206973206e6f7420746865206f776e65726000830152602082019050919050565b6000613c7a60178361443f565b91507f416363657373436f6e74726f6c3a206163636f756e74200000000000000000006000830152601782019050919050565b6000613cba60298361442e565b91507f455243313135353a2073657474696e6720617070726f76616c2073746174757360008301527f20666f722073656c6600000000000000000000000000000000000000000000006020830152604082019050919050565b6000613d2060298361442e565b91507f455243313135353a206163636f756e747320616e6420696473206c656e67746860008301527f206d69736d6174636800000000000000000000000000000000000000000000006020830152604082019050919050565b6000613d8660288361442e565b91507f455243313135353a2069647320616e6420616d6f756e7473206c656e6774682060008301527f6d69736d617463680000000000000000000000000000000000000000000000006020830152604082019050919050565b6000613dec60218361442e565b91507f455243313135353a206d696e7420746f20746865207a65726f2061646472657360008301527f73000000000000000000000000000000000000000000000000000000000000006020830152604082019050919050565b6000613e5260118361443f565b91507f206973206d697373696e6720726f6c65200000000000000000000000000000006000830152601182019050919050565b6000613e92602f8361442e565b91507f416363657373436f6e74726f6c3a2063616e206f6e6c792072656e6f756e636560008301527f20726f6c657320666f722073656c6600000000000000000000000000000000006020830152604082019050919050565b613ef48161459f565b82525050565b613f038161459f565b82525050565b6000613f1482613c6d565b9150613f208285613826565b9150613f2b82613e45565b9150613f378284613826565b91508190509392505050565b6000602082019050613f586000830184613729565b92915050565b600060a082019050613f736000830188613729565b613f806020830187613729565b8181036040830152613f928186613738565b90508181036060830152613fa68185613738565b90508181036080830152613fba81846137b4565b90509695505050505050565b600060a082019050613fdb6000830188613729565b613fe86020830187613729565b613ff56040830186613efa565b6140026060830185613efa565b818103608083015261401481846137b4565b90509695505050505050565b6000602082019050818103600083015261403a8184613738565b905092915050565b6000604082019050818103600083015261405c8185613738565b905081810360208301526140708184613738565b90509392505050565b600060208201905061408e6000830184613796565b92915050565b60006020820190506140a960008301846137a5565b92915050565b600060208201905081810360008301526140c981846137ed565b905092915050565b600060208201905081810360008301526140ea81613857565b9050919050565b6000602082019050818103600083015261410a816138bd565b9050919050565b6000602082019050818103600083015261412a816138fd565b9050919050565b6000602082019050818103600083015261414a81613963565b9050919050565b6000602082019050818103600083015261416a816139c9565b9050919050565b6000602082019050818103600083015261418a81613a2f565b9050919050565b600060208201905081810360008301526141aa81613a95565b9050919050565b600060208201905081810360008301526141ca81613afb565b9050919050565b600060208201905081810360008301526141ea81613b61565b9050919050565b6000602082019050818103600083015261420a81613bc7565b9050919050565b6000602082019050818103600083015261422a81613c2d565b9050919050565b6000602082019050818103600083015261424a81613cad565b9050919050565b6000602082019050818103600083015261426a81613d13565b9050919050565b6000602082019050818103600083015261428a81613d79565b9050919050565b600060208201905081810360008301526142aa81613ddf565b9050919050565b600060208201905081810360008301526142ca81613e85565b9050919050565b60006020820190506142e66000830184613efa565b92915050565b60006040820190506143016000830185613efa565b61430e6020830184613efa565b9392505050565b6000604051905081810181811067ffffffffffffffff8211171561433c5761433b61471d565b5b8060405250919050565b600067ffffffffffffffff8211156143615761436061471d565b5b602082029050602081019050919050565b600067ffffffffffffffff82111561438d5761438c61471d565b5b602082029050602081019050919050565b600067ffffffffffffffff8211156143b9576143b861471d565b5b601f19601f8301169050602081019050919050565b6000819050602082019050919050565b600081519050919050565b600081519050919050565b600081519050919050565b6000602082019050919050565b600082825260208201905092915050565b600082825260208201905092915050565b600082825260208201905092915050565b600081905092915050565b60006144558261459f565b91506144608361459f565b9250827fffffffffffffffffffffffffffffffffffffffffffffffffffffffffffffffff0382111561449557614494614690565b5b828201905092915050565b60006144ab8261459f565b91506144b68361459f565b9250826144c6576144c56146bf565b5b828204905092915050565b60006144dc8261459f565b91506144e78361459f565b9250817fffffffffffffffffffffffffffffffffffffffffffffffffffffffffffffffff04831182151516156145205761451f614690565b5b828202905092915050565b60006145368261457f565b9050919050565b60008115159050919050565b6000819050919050565b60007fffffffff0000000000000000000000000000000000000000000000000000000082169050919050565b600073ffffffffffffffffffffffffffffffffffffffff82169050919050565b6000819050919050565b82818337600083830152505050565b60005b838110156145d65780820151818401526020810190506145bb565b838111156145e5576000848401525b50505050565b60006145f68261459f565b9150600082141561460a57614609614690565b5b600182039050919050565b6000600282049050600182168061462d57607f821691505b60208210811415614641576146406146ee565b5b50919050565b60006146528261459f565b91507fffffffffffffffffffffffffffffffffffffffffffffffffffffffffffffffff82141561468557614684614690565b5b600182019050919050565b7f4e487b7100000000000000000000000000000000000000000000000000000000600052601160045260246000fd5b7f4e487b7100000000000000000000000000000000000000000000000000000000600052601260045260246000fd5b7f4e487b7100000000000000000000000000000000000000000000000000000000600052602260045260246000fd5b7f4e487b7100000000000000000000000000000000000000000000000000000000600052604160045260246000fd5b6000601f19601f8301169050919050565b60008160e01c9050919050565b600060443d101561477a5761481d565b60046000803e61478b60005161475d565b6308c379a0811461479c575061481d565b60405160043d036004823e80513d602482011167ffffffffffffffff821117156147c85750505061481d565b808201805167ffffffffffffffff8111156147e757505050505061481d565b8060208301013d85018111156148025750505050505061481d565b61480b8261474c565b60208401016040528296505050505050505b90565b6148298161452b565b811461483457600080fd5b50565b6148408161453d565b811461484b57600080fd5b50565b61485781614549565b811461486257600080fd5b50565b61486e81614553565b811461487957600080fd5b50565b6148858161459f565b811461489057600080fd5b5056fea264697066735822122071f3578e2d11c6835883b69b133ed3ba48df6fe636a895a7534e91984383e3c864736f6c63430008000033a26469706673582212204de3b896956481d27c9dbe63a196307850cb09ecc0201546d0f12bd0096992d264736f6c63430008000033",
  "linkReferences": {},
  "deployedLinkReferences": {}
}