{
  "_format": "hh-sol-artifact-1",
  "contractName": "QuestAssetFactory",
  "sourceName": "contracts/TokenFactory.sol",
  "abi": [
    {
      "inputs": [],
      "stateMutability": "nonpayable",
      "type": "constructor"
    },
    {
      "inputs": [
        {
          "internalType": "string",
          "name": "_baseURI",
          "type": "string"
        },
        {
          "internalType": "address",
          "name": "_managingCompany",
          "type": "address"
        }
      ],
      "name": "deployQuestCryptoAsset",
      "outputs": [
        {
          "internalType": "address",
          "name": "",
          "type": "address"
        }
      ],
      "stateMutability": "nonpayable",
      "type": "function"
    }
  ],
  "bytecode": "0x6080604052600060015534801561001557600080fd5b5033600260006101000a81548173ffffffffffffffffffffffffffffffffffffffff021916908373ffffffffffffffffffffffffffffffffffffffff16021790555061518c806100666000396000f3fe60806040523480156200001157600080fd5b50600436106200002e5760003560e01c8063a8d7a5fc1462000033575b600080fd5b6200005160048036038101906200004b919062000237565b62000069565b604051620000609190620002e3565b60405180910390f35b6000600260009054906101000a900473ffffffffffffffffffffffffffffffffffffffff1673ffffffffffffffffffffffffffffffffffffffff163373ffffffffffffffffffffffffffffffffffffffff1614620000c657600080fd5b60008383600260009054906101000a900473ffffffffffffffffffffffffffffffffffffffff16604051620000fb90620001a0565b620001099392919062000300565b604051809103906000f08015801562000126573d6000803e3d6000fd5b50905080600080600154815260200190815260200160002060006101000a81548173ffffffffffffffffffffffffffffffffffffffff021916908373ffffffffffffffffffffffffffffffffffffffff1602179055506001600081548092919062000191906200044a565b91905055508091505092915050565b614c35806200052283390190565b6000620001c5620001bf8462000378565b62000344565b905082815260208101848484011115620001de57600080fd5b620001eb84828562000405565b509392505050565b600081359050620002048162000507565b92915050565b600082601f8301126200021c57600080fd5b81356200022e848260208601620001ae565b91505092915050565b600080604083850312156200024b57600080fd5b600083013567ffffffffffffffff8111156200026657600080fd5b62000274858286016200020a565b92505060206200028785828601620001f3565b9150509250929050565b6200029c81620003c7565b82525050565b6000620002af82620003ab565b620002bb8185620003b6565b9350620002cd81856020860162000414565b620002d881620004f6565b840191505092915050565b6000602082019050620002fa600083018462000291565b92915050565b600060608201905081810360008301526200031c8186620002a2565b90506200032d602083018562000291565b6200033c604083018462000291565b949350505050565b6000604051905081810181811067ffffffffffffffff821117156200036e576200036d620004c7565b5b8060405250919050565b600067ffffffffffffffff821115620003965762000395620004c7565b5b601f19601f8301169050602081019050919050565b600081519050919050565b600082825260208201905092915050565b6000620003d482620003db565b9050919050565b600073ffffffffffffffffffffffffffffffffffffffff82169050919050565b6000819050919050565b82818337600083830152505050565b60005b838110156200043457808201518184015260208101905062000417565b8381111562000444576000848401525b50505050565b60006200045782620003fb565b91507fffffffffffffffffffffffffffffffffffffffffffffffffffffffffffffffff8214156200048d576200048c62000498565b5b600182019050919050565b7f4e487b7100000000000000000000000000000000000000000000000000000000600052601160045260246000fd5b7f4e487b7100000000000000000000000000000000000000000000000000000000600052604160045260246000fd5b6000601f19601f8301169050919050565b6200051281620003c7565b81146200051e57600080fd5b5056fe6080604052655af3107a4000600c556512309ce54000600d556512309ce54000600e553480156200002f57600080fd5b5060405162004c3538038062004c358339818101604052810190620000559190620009dc565b6040518060200160405280600081525062000076816200019d60201b60201c565b50620000976200008b620001b960201b60201c565b620001c160201b60201c565b8260049080519060200190620000af92919062000860565b50620000d58260006001604051806020016040528060008152506200028760201b60201c565b620000f982600180604051806020016040528060008152506200028760201b60201c565b6200011e8260026001604051806020016040528060008152506200028760201b60201c565b620001438260036001604051806020016040528060008152506200028760201b60201c565b620001688260046001604051806020016040528060008152506200028760201b60201c565b6000601060006101000a81548160ff02191690831515021790555062000194816200044c60201b60201c565b505050620011a5565b8060029080519060200190620001b592919062000860565b5050565b600033905090565b6000600360009054906101000a900473ffffffffffffffffffffffffffffffffffffffff16905081600360006101000a81548173ffffffffffffffffffffffffffffffffffffffff021916908373ffffffffffffffffffffffffffffffffffffffff1602179055508173ffffffffffffffffffffffffffffffffffffffff168173ffffffffffffffffffffffffffffffffffffffff167f8be0079c531659141344cd1fd0a4f28419497f9722a3daafe3b4186f6b6457e060405160405180910390a35050565b600073ffffffffffffffffffffffffffffffffffffffff168473ffffffffffffffffffffffffffffffffffffffff161415620002fa576040517f08c379a0000000000000000000000000000000000000000000000000000000008152600401620002f19062000de1565b60405180910390fd5b60006200030c620001b960201b60201c565b9050620003458160008762000327886200056260201b60201c565b62000338886200056260201b60201c565b876200062b60201b60201c565b8260008086815260200190815260200160002060008773ffffffffffffffffffffffffffffffffffffffff1673ffffffffffffffffffffffffffffffffffffffff1681526020019081526020016000206000828254620003a6919062000ecf565b925050819055508473ffffffffffffffffffffffffffffffffffffffff16600073ffffffffffffffffffffffffffffffffffffffff168273ffffffffffffffffffffffffffffffffffffffff167fc3d58168c5ae7397731d063d5bbf3d657854427343f4c083240f7aacaa2d0f6287876040516200042692919062000e03565b60405180910390a462000445816000878787876200063360201b60201c565b5050505050565b6200045c620001b960201b60201c565b73ffffffffffffffffffffffffffffffffffffffff16620004826200082360201b60201c565b73ffffffffffffffffffffffffffffffffffffffff1614620004db576040517f08c379a0000000000000000000000000000000000000000000000000000000008152600401620004d29062000dbf565b60405180910390fd5b600073ffffffffffffffffffffffffffffffffffffffff168173ffffffffffffffffffffffffffffffffffffffff1614156200054e576040517f08c379a0000000000000000000000000000000000000000000000000000000008152600401620005459062000d9d565b60405180910390fd5b6200055f81620001c160201b60201c565b50565b60606000600167ffffffffffffffff811115620005a8577f4e487b7100000000000000000000000000000000000000000000000000000000600052604160045260246000fd5b604051908082528060200260200182016040528015620005d75781602001602082028036833780820191505090505b509050828160008151811062000616577f4e487b7100000000000000000000000000000000000000000000000000000000600052603260045260246000fd5b60200260200101818152505080915050919050565b505050505050565b6200065f8473ffffffffffffffffffffffffffffffffffffffff166200084d60201b620016f41760201c565b156200081b578373ffffffffffffffffffffffffffffffffffffffff1663f23a6e6187878686866040518663ffffffff1660e01b8152600401620006a895949392919062000cd1565b602060405180830381600087803b158015620006c357600080fd5b505af1925050508015620006f757506040513d601f19601f82011682018060405250810190620006f49190620009b0565b60015b6200078f5762000706620010ad565b8062000713575062000752565b806040517f08c379a000000000000000000000000000000000000000000000000000000000815260040162000749919062000d35565b60405180910390fd5b6040517f08c379a0000000000000000000000000000000000000000000000000000000008152600401620007869062000d59565b60405180910390fd5b63f23a6e6160e01b7bffffffffffffffffffffffffffffffffffffffffffffffffffffffff1916817bffffffffffffffffffffffffffffffffffffffffffffffffffffffff19161462000819576040517f08c379a0000000000000000000000000000000000000000000000000000000008152600401620008109062000d7b565b60405180910390fd5b505b505050505050565b6000600360009054906101000a900473ffffffffffffffffffffffffffffffffffffffff16905090565b600080823b905060008111915050919050565b8280546200086e9062000fcc565b90600052602060002090601f016020900481019282620008925760008555620008de565b82601f10620008ad57805160ff1916838001178555620008de565b82800160010185558215620008de579182015b82811115620008dd578251825591602001919060010190620008c0565b5b509050620008ed9190620008f1565b5090565b5b808211156200090c576000816000905550600101620008f2565b5090565b600062000927620009218462000e64565b62000e30565b9050828152602081018484840111156200094057600080fd5b6200094d84828562000f96565b509392505050565b600081519050620009668162001171565b92915050565b6000815190506200097d816200118b565b92915050565b600082601f8301126200099557600080fd5b8151620009a784826020860162000910565b91505092915050565b600060208284031215620009c357600080fd5b6000620009d3848285016200096c565b91505092915050565b600080600060608486031215620009f257600080fd5b600084015167ffffffffffffffff81111562000a0d57600080fd5b62000a1b8682870162000983565b935050602062000a2e8682870162000955565b925050604062000a418682870162000955565b9150509250925092565b62000a568162000f2c565b82525050565b600062000a698262000e97565b62000a75818562000ead565b935062000a8781856020860162000f96565b62000a92816200108f565b840191505092915050565b600062000aaa8262000ea2565b62000ab6818562000ebe565b935062000ac881856020860162000f96565b62000ad3816200108f565b840191505092915050565b600062000aed60348362000ebe565b91507f455243313135353a207472616e7366657220746f206e6f6e204552433131353560008301527f526563656976657220696d706c656d656e7465720000000000000000000000006020830152604082019050919050565b600062000b5560288362000ebe565b91507f455243313135353a204552433131353552656365697665722072656a6563746560008301527f6420746f6b656e730000000000000000000000000000000000000000000000006020830152604082019050919050565b600062000bbd60268362000ebe565b91507f4f776e61626c653a206e6577206f776e657220697320746865207a65726f206160008301527f64647265737300000000000000000000000000000000000000000000000000006020830152604082019050919050565b600062000c2560208362000ebe565b91507f4f776e61626c653a2063616c6c6572206973206e6f7420746865206f776e65726000830152602082019050919050565b600062000c6760218362000ebe565b91507f455243313135353a206d696e7420746f20746865207a65726f2061646472657360008301527f73000000000000000000000000000000000000000000000000000000000000006020830152604082019050919050565b62000ccb8162000f8c565b82525050565b600060a08201905062000ce8600083018862000a4b565b62000cf7602083018762000a4b565b62000d06604083018662000cc0565b62000d15606083018562000cc0565b818103608083015262000d29818462000a5c565b90509695505050505050565b6000602082019050818103600083015262000d51818462000a9d565b905092915050565b6000602082019050818103600083015262000d748162000ade565b9050919050565b6000602082019050818103600083015262000d968162000b46565b9050919050565b6000602082019050818103600083015262000db88162000bae565b9050919050565b6000602082019050818103600083015262000dda8162000c16565b9050919050565b6000602082019050818103600083015262000dfc8162000c58565b9050919050565b600060408201905062000e1a600083018562000cc0565b62000e29602083018462000cc0565b9392505050565b6000604051905081810181811067ffffffffffffffff8211171562000e5a5762000e5962001060565b5b8060405250919050565b600067ffffffffffffffff82111562000e825762000e8162001060565b5b601f19601f8301169050602081019050919050565b600081519050919050565b600081519050919050565b600082825260208201905092915050565b600082825260208201905092915050565b600062000edc8262000f8c565b915062000ee98362000f8c565b9250827fffffffffffffffffffffffffffffffffffffffffffffffffffffffffffffffff0382111562000f215762000f2062001002565b5b828201905092915050565b600062000f398262000f6c565b9050919050565b60007fffffffff0000000000000000000000000000000000000000000000000000000082169050919050565b600073ffffffffffffffffffffffffffffffffffffffff82169050919050565b6000819050919050565b60005b8381101562000fb657808201518184015260208101905062000f99565b8381111562000fc6576000848401525b50505050565b6000600282049050600182168062000fe557607f821691505b6020821081141562000ffc5762000ffb62001031565b5b50919050565b7f4e487b7100000000000000000000000000000000000000000000000000000000600052601160045260246000fd5b7f4e487b7100000000000000000000000000000000000000000000000000000000600052602260045260246000fd5b7f4e487b7100000000000000000000000000000000000000000000000000000000600052604160045260246000fd5b6000601f19601f8301169050919050565b60008160e01c9050919050565b600060443d1015620010bf576200116e565b60046000803e620010d2600051620010a0565b6308c379a08114620010e557506200116e565b60405160043d036004823e80513d602482011167ffffffffffffffff8211171562001113575050506200116e565b808201805167ffffffffffffffff811115620011345750505050506200116e565b8060208301013d850181111562001151575050505050506200116e565b6200115c826200108f565b60208401016040528296505050505050505b90565b6200117c8162000f2c565b81146200118857600080fd5b50565b620011968162000f40565b8114620011a257600080fd5b50565b613a8080620011b56000396000f3fe6080604052600436106102245760003560e01c80638d6cc56d11610123578063c0cb4707116100ab578063eccf8e2e1161006f578063eccf8e2e1461079d578063ef66c182146107c8578063f242432a146107f3578063f2fde38b1461081c578063ff5ddc111461084557610224565b8063c0cb4707146106c3578063cad1115614610700578063ddc3dd4b1461072b578063e4869f9314610735578063e985e9c51461076057610224565b8063a2ccccbd116100f2578063a2ccccbd146105ee578063ad76e2e314610617578063b03de27614610642578063b45c09181461066d578063b6f9163a1461069857610224565b80638d6cc56d146105465780638da5cb5b1461056f578063a109638f1461059a578063a22cb465146105c557610224565b80634207369a116101b15780636c0360eb116101755780636c0360eb14610492578063715018a6146104bd57806373988316146104d457806378c2e7f4146104ff5780638d0ab0061461050957610224565b80634207369a146103bd5780634ce58f44146103d45780634d49cc51146103ff5780634e1273f41461042a5780636145ca021461046757610224565b80630e89341c116101f85780630e89341c146102d8578063217b7add146103155780632eb2c2d61461033e57806336757944146103675780633bb0be771461039257610224565b8062fdd58e1461022957806301ffc9a7146102665780630504e6ed146102a35780630c610a7b146102ce575b600080fd5b34801561023557600080fd5b50610250600480360381019061024b91906129f6565b610870565b60405161025d9190613538565b60405180910390f35b34801561027257600080fd5b5061028d60048036038101906102889190612ae3565b610939565b60405161029a919061335b565b60405180910390f35b3480156102af57600080fd5b506102b8610a1b565b6040516102c59190613538565b60405180910390f35b6102d6610a20565b005b3480156102e457600080fd5b506102ff60048036038101906102fa9190612b35565b610aa5565b60405161030c9190613376565b60405180910390f35b34801561032157600080fd5b5061033c60048036038101906103379190612a9e565b610b39565b005b34801561034a57600080fd5b506103656004803603810190610360919061286c565b610bcb565b005b34801561037357600080fd5b5061037c610c6c565b6040516103899190613538565b60405180910390f35b34801561039e57600080fd5b506103a7610c71565b6040516103b49190613538565b60405180910390f35b3480156103c957600080fd5b506103d2610c77565b005b3480156103e057600080fd5b506103e9610d10565b6040516103f69190613538565b60405180910390f35b34801561040b57600080fd5b50610414610d15565b6040516104219190613538565b60405180910390f35b34801561043657600080fd5b50610451600480360381019061044c9190612a32565b610d1b565b60405161045e9190613302565b60405180910390f35b34801561047357600080fd5b5061047c610ecc565b604051610489919061335b565b60405180910390f35b34801561049e57600080fd5b506104a7610edf565b6040516104b49190613376565b60405180910390f35b3480156104c957600080fd5b506104d2610f71565b005b3480156104e057600080fd5b506104e9610ff9565b6040516104f69190613538565b60405180910390f35b610507610fff565b005b34801561051557600080fd5b50610530600480360381019061052b9190612b35565b611084565b60405161053d9190613538565b60405180910390f35b34801561055257600080fd5b5061056d60048036038101906105689190612b35565b6110a8565b005b34801561057b57600080fd5b5061058461112e565b6040516105919190613225565b60405180910390f35b3480156105a657600080fd5b506105af611158565b6040516105bc9190613538565b60405180910390f35b3480156105d157600080fd5b506105ec60048036038101906105e791906129ba565b61115e565b005b3480156105fa57600080fd5b5061061560048036038101906106109190612b5e565b6112df565b005b34801561062357600080fd5b5061062c6113ee565b6040516106399190613538565b60405180910390f35b34801561064e57600080fd5b506106576113f3565b6040516106649190613538565b60405180910390f35b34801561067957600080fd5b506106826113f8565b60405161068f9190613538565b60405180910390f35b3480156106a457600080fd5b506106ad6113fe565b6040516106ba9190613538565b60405180910390f35b3480156106cf57600080fd5b506106ea60048036038101906106e59190612b35565b611403565b6040516106f79190613538565b60405180910390f35b34801561070c57600080fd5b50610715611427565b6040516107229190613538565b60405180910390f35b61073361142c565b005b34801561074157600080fd5b5061074a6114b1565b6040516107579190613538565b60405180910390f35b34801561076c57600080fd5b5061078760048036038101906107829190612830565b6114b7565b604051610794919061335b565b60405180910390f35b3480156107a957600080fd5b506107b261154b565b6040516107bf9190613538565b60405180910390f35b3480156107d457600080fd5b506107dd611550565b6040516107ea9190613538565b60405180910390f35b3480156107ff57600080fd5b5061081a6004803603810190610815919061292b565b611555565b005b34801561082857600080fd5b50610843600480360381019061083e9190612807565b6115f6565b005b34801561085157600080fd5b5061085a6116ee565b6040516108679190613538565b60405180910390f35b60008073ffffffffffffffffffffffffffffffffffffffff168373ffffffffffffffffffffffffffffffffffffffff1614156108e1576040517f08c379a00000000000000000000000000000000000000000000000000000000081526004016108d8906133d8565b60405180910390fd5b60008083815260200190815260200160002060008473ffffffffffffffffffffffffffffffffffffffff1673ffffffffffffffffffffffffffffffffffffffff16815260200190815260200160002054905092915050565b60007fd9b67a26000000000000000000000000000000000000000000000000000000007bffffffffffffffffffffffffffffffffffffffffffffffffffffffff1916827bffffffffffffffffffffffffffffffffffffffffffffffffffffffff19161480610a0457507f0e89341c000000000000000000000000000000000000000000000000000000007bffffffffffffffffffffffffffffffffffffffffffffffffffffffff1916827bffffffffffffffffffffffffffffffffffffffffffffffffffffffff1916145b80610a145750610a1382611707565b5b9050919050565b600881565b601060019054906101000a900473ffffffffffffffffffffffffffffffffffffffff1673ffffffffffffffffffffffffffffffffffffffff163373ffffffffffffffffffffffffffffffffffffffff1614610a7a57600080fd5b610aa3336005600c5434610a8e91906136fc565b60405180602001604052806000815250611771565b565b606060028054610ab4906137e3565b80601f0160208091040260200160405190810160405280929190818152602001828054610ae0906137e3565b8015610b2d5780601f10610b0257610100808354040283529160200191610b2d565b820191906000526020600020905b815481529060010190602001808311610b1057829003601f168201915b50505050509050919050565b610b41611907565b73ffffffffffffffffffffffffffffffffffffffff16610b5f61112e565b73ffffffffffffffffffffffffffffffffffffffff1614610bb5576040517f08c379a0000000000000000000000000000000000000000000000000000000008152600401610bac90613498565b60405180910390fd5b8181600f9190610bc6929190612425565b505050565b610bd3611907565b73ffffffffffffffffffffffffffffffffffffffff168573ffffffffffffffffffffffffffffffffffffffff161480610c195750610c1885610c13611907565b6114b7565b5b610c58576040517f08c379a0000000000000000000000000000000000000000000000000000000008152600401610c4f90613458565b60405180910390fd5b610c65858585858561190f565b5050505050565b600681565b60095481565b610c7f611907565b73ffffffffffffffffffffffffffffffffffffffff16610c9d61112e565b73ffffffffffffffffffffffffffffffffffffffff1614610cf3576040517f08c379a0000000000000000000000000000000000000000000000000000000008152600401610cea90613498565b60405180910390fd5b6001601060006101000a81548160ff021916908315150217905550565b600781565b600e5481565b60608151835114610d61576040517f08c379a0000000000000000000000000000000000000000000000000000000008152600401610d58906134d8565b60405180910390fd5b6000835167ffffffffffffffff811115610da4577f4e487b7100000000000000000000000000000000000000000000000000000000600052604160045260246000fd5b604051908082528060200260200182016040528015610dd25781602001602082028036833780820191505090505b50905060005b8451811015610ec157610e6b858281518110610e1d577f4e487b7100000000000000000000000000000000000000000000000000000000600052603260045260246000fd5b6020026020010151858381518110610e5e577f4e487b7100000000000000000000000000000000000000000000000000000000600052603260045260246000fd5b6020026020010151610870565b828281518110610ea4577f4e487b7100000000000000000000000000000000000000000000000000000000600052603260045260246000fd5b60200260200101818152505080610eba90613815565b9050610dd8565b508091505092915050565b601060009054906101000a900460ff1681565b606060048054610eee906137e3565b80601f0160208091040260200160405190810160405280929190818152602001828054610f1a906137e3565b8015610f675780601f10610f3c57610100808354040283529160200191610f67565b820191906000526020600020905b815481529060010190602001808311610f4a57829003601f168201915b5050505050905090565b610f79611907565b73ffffffffffffffffffffffffffffffffffffffff16610f9761112e565b73ffffffffffffffffffffffffffffffffffffffff1614610fed576040517f08c379a0000000000000000000000000000000000000000000000000000000008152600401610fe490613498565b60405180910390fd5b610ff76000611c6f565b565b600a5481565b601060019054906101000a900473ffffffffffffffffffffffffffffffffffffffff1673ffffffffffffffffffffffffffffffffffffffff163373ffffffffffffffffffffffffffffffffffffffff161461105957600080fd5b611082336006600d543461106d91906136fc565b60405180602001604052806000815250611771565b565b6006818154811061109457600080fd5b906000526020600020016000915090505481565b6110b0611907565b73ffffffffffffffffffffffffffffffffffffffff166110ce61112e565b73ffffffffffffffffffffffffffffffffffffffff1614611124576040517f08c379a000000000000000000000000000000000000000000000000000000000815260040161111b90613498565b60405180910390fd5b80600c8190555050565b6000600360009054906101000a900473ffffffffffffffffffffffffffffffffffffffff16905090565b60085481565b8173ffffffffffffffffffffffffffffffffffffffff1661117d611907565b73ffffffffffffffffffffffffffffffffffffffff1614156111d4576040517f08c379a00000000000000000000000000000000000000000000000000000000081526004016111cb906134b8565b60405180910390fd5b80600160006111e1611907565b73ffffffffffffffffffffffffffffffffffffffff1673ffffffffffffffffffffffffffffffffffffffff16815260200190815260200160002060008473ffffffffffffffffffffffffffffffffffffffff1673ffffffffffffffffffffffffffffffffffffffff16815260200190815260200160002060006101000a81548160ff0219169083151502179055508173ffffffffffffffffffffffffffffffffffffffff1661128e611907565b73ffffffffffffffffffffffffffffffffffffffff167f17307eab39ab6107e8899845ad3d59bd9653f200f220920489ca2b5937696c31836040516112d3919061335b565b60405180910390a35050565b6112e7611907565b73ffffffffffffffffffffffffffffffffffffffff1661130561112e565b73ffffffffffffffffffffffffffffffffffffffff161461135b576040517f08c379a000000000000000000000000000000000000000000000000000000000815260040161135290613498565b60405180910390fd5b821561138f5760058690806001815401808255809150506001900390600052602060002001600090919091909150556113b9565b60068690806001815401808255809150506001900390600052602060002001600090919091909150555b84846007600089815260200190815260200160002091906113db9291906124d3565b506113e68282610b39565b505050505050565b600081565b600581565b600d5481565b600481565b6005818154811061141357600080fd5b906000526020600020016000915090505481565b600381565b601060019054906101000a900473ffffffffffffffffffffffffffffffffffffffff1673ffffffffffffffffffffffffffffffffffffffff163373ffffffffffffffffffffffffffffffffffffffff161461148657600080fd5b6114af336007600e543461149a91906136fc565b60405180602001604052806000815250611771565b565b600b5481565b6000600160008473ffffffffffffffffffffffffffffffffffffffff1673ffffffffffffffffffffffffffffffffffffffff16815260200190815260200160002060008373ffffffffffffffffffffffffffffffffffffffff1673ffffffffffffffffffffffffffffffffffffffff16815260200190815260200160002060009054906101000a900460ff16905092915050565b600281565b600181565b61155d611907565b73ffffffffffffffffffffffffffffffffffffffff168573ffffffffffffffffffffffffffffffffffffffff1614806115a357506115a28561159d611907565b6114b7565b5b6115e2576040517f08c379a00000000000000000000000000000000000000000000000000000000081526004016115d990613418565b60405180910390fd5b6115ef8585858585611d35565b5050505050565b6115fe611907565b73ffffffffffffffffffffffffffffffffffffffff1661161c61112e565b73ffffffffffffffffffffffffffffffffffffffff1614611672576040517f08c379a000000000000000000000000000000000000000000000000000000000815260040161166990613498565b60405180910390fd5b600073ffffffffffffffffffffffffffffffffffffffff168173ffffffffffffffffffffffffffffffffffffffff1614156116e2576040517f08c379a00000000000000000000000000000000000000000000000000000000081526004016116d9906133f8565b60405180910390fd5b6116eb81611c6f565b50565b600c5481565b600080823b905060008111915050919050565b60007f01ffc9a7000000000000000000000000000000000000000000000000000000007bffffffffffffffffffffffffffffffffffffffffffffffffffffffff1916827bffffffffffffffffffffffffffffffffffffffffffffffffffffffff1916149050919050565b600073ffffffffffffffffffffffffffffffffffffffff168473ffffffffffffffffffffffffffffffffffffffff1614156117e1576040517f08c379a00000000000000000000000000000000000000000000000000000000081526004016117d890613518565b60405180910390fd5b60006117eb611907565b905061180c816000876117fd88611fb7565b61180688611fb7565b8761207d565b8260008086815260200190815260200160002060008773ffffffffffffffffffffffffffffffffffffffff1673ffffffffffffffffffffffffffffffffffffffff168152602001908152602001600020600082825461186b91906136a6565b925050819055508473ffffffffffffffffffffffffffffffffffffffff16600073ffffffffffffffffffffffffffffffffffffffff168273ffffffffffffffffffffffffffffffffffffffff167fc3d58168c5ae7397731d063d5bbf3d657854427343f4c083240f7aacaa2d0f6287876040516118e9929190613553565b60405180910390a461190081600087878787612085565b5050505050565b600033905090565b8151835114611953576040517f08c379a000000000000000000000000000000000000000000000000000000000815260040161194a906134f8565b60405180910390fd5b600073ffffffffffffffffffffffffffffffffffffffff168473ffffffffffffffffffffffffffffffffffffffff1614156119c3576040517f08c379a00000000000000000000000000000000000000000000000000000000081526004016119ba90613438565b60405180910390fd5b60006119cd611907565b90506119dd81878787878761207d565b60005b8451811015611bda576000858281518110611a24577f4e487b7100000000000000000000000000000000000000000000000000000000600052603260045260246000fd5b602002602001015190506000858381518110611a69577f4e487b7100000000000000000000000000000000000000000000000000000000600052603260045260246000fd5b60200260200101519050600080600084815260200190815260200160002060008b73ffffffffffffffffffffffffffffffffffffffff1673ffffffffffffffffffffffffffffffffffffffff16815260200190815260200160002054905081811015611b0a576040517f08c379a0000000000000000000000000000000000000000000000000000000008152600401611b0190613478565b60405180910390fd5b81810360008085815260200190815260200160002060008c73ffffffffffffffffffffffffffffffffffffffff1673ffffffffffffffffffffffffffffffffffffffff168152602001908152602001600020819055508160008085815260200190815260200160002060008b73ffffffffffffffffffffffffffffffffffffffff1673ffffffffffffffffffffffffffffffffffffffff1681526020019081526020016000206000828254611bbf91906136a6565b9250508190555050505080611bd390613815565b90506119e0565b508473ffffffffffffffffffffffffffffffffffffffff168673ffffffffffffffffffffffffffffffffffffffff168273ffffffffffffffffffffffffffffffffffffffff167f4a39dc06d4c0dbc64b70af90fd698a233a518aa5d07e595d983b8c0526c8f7fb8787604051611c51929190613324565b60405180910390a4611c67818787878787612255565b505050505050565b6000600360009054906101000a900473ffffffffffffffffffffffffffffffffffffffff16905081600360006101000a81548173ffffffffffffffffffffffffffffffffffffffff021916908373ffffffffffffffffffffffffffffffffffffffff1602179055508173ffffffffffffffffffffffffffffffffffffffff168173ffffffffffffffffffffffffffffffffffffffff167f8be0079c531659141344cd1fd0a4f28419497f9722a3daafe3b4186f6b6457e060405160405180910390a35050565b600073ffffffffffffffffffffffffffffffffffffffff168473ffffffffffffffffffffffffffffffffffffffff161415611da5576040517f08c379a0000000000000000000000000000000000000000000000000000000008152600401611d9c90613438565b60405180910390fd5b6000611daf611907565b9050611dcf818787611dc088611fb7565b611dc988611fb7565b8761207d565b600080600086815260200190815260200160002060008873ffffffffffffffffffffffffffffffffffffffff1673ffffffffffffffffffffffffffffffffffffffff16815260200190815260200160002054905083811015611e66576040517f08c379a0000000000000000000000000000000000000000000000000000000008152600401611e5d90613478565b60405180910390fd5b83810360008087815260200190815260200160002060008973ffffffffffffffffffffffffffffffffffffffff1673ffffffffffffffffffffffffffffffffffffffff168152602001908152602001600020819055508360008087815260200190815260200160002060008873ffffffffffffffffffffffffffffffffffffffff1673ffffffffffffffffffffffffffffffffffffffff1681526020019081526020016000206000828254611f1b91906136a6565b925050819055508573ffffffffffffffffffffffffffffffffffffffff168773ffffffffffffffffffffffffffffffffffffffff168373ffffffffffffffffffffffffffffffffffffffff167fc3d58168c5ae7397731d063d5bbf3d657854427343f4c083240f7aacaa2d0f628888604051611f98929190613553565b60405180910390a4611fae828888888888612085565b50505050505050565b60606000600167ffffffffffffffff811115611ffc577f4e487b7100000000000000000000000000000000000000000000000000000000600052604160045260246000fd5b60405190808252806020026020018201604052801561202a5781602001602082028036833780820191505090505b5090508281600081518110612068577f4e487b7100000000000000000000000000000000000000000000000000000000600052603260045260246000fd5b60200260200101818152505080915050919050565b505050505050565b6120a48473ffffffffffffffffffffffffffffffffffffffff166116f4565b1561224d578373ffffffffffffffffffffffffffffffffffffffff1663f23a6e6187878686866040518663ffffffff1660e01b81526004016120ea9594939291906132a8565b602060405180830381600087803b15801561210457600080fd5b505af192505050801561213557506040513d601f19601f820116820180604052508101906121329190612b0c565b60015b6121c457612141613938565b8061214c5750612189565b806040517f08c379a00000000000000000000000000000000000000000000000000000000081526004016121809190613376565b60405180910390fd5b6040517f08c379a00000000000000000000000000000000000000000000000000000000081526004016121bb90613398565b60405180910390fd5b63f23a6e6160e01b7bffffffffffffffffffffffffffffffffffffffffffffffffffffffff1916817bffffffffffffffffffffffffffffffffffffffffffffffffffffffff19161461224b576040517f08c379a0000000000000000000000000000000000000000000000000000000008152600401612242906133b8565b60405180910390fd5b505b505050505050565b6122748473ffffffffffffffffffffffffffffffffffffffff166116f4565b1561241d578373ffffffffffffffffffffffffffffffffffffffff1663bc197c8187878686866040518663ffffffff1660e01b81526004016122ba959493929190613240565b602060405180830381600087803b1580156122d457600080fd5b505af192505050801561230557506040513d601f19601f820116820180604052508101906123029190612b0c565b60015b61239457612311613938565b8061231c5750612359565b806040517f08c379a00000000000000000000000000000000000000000000000000000000081526004016123509190613376565b60405180910390fd5b6040517f08c379a000000000000000000000000000000000000000000000000000000000815260040161238b90613398565b60405180910390fd5b63bc197c8160e01b7bffffffffffffffffffffffffffffffffffffffffffffffffffffffff1916817bffffffffffffffffffffffffffffffffffffffffffffffffffffffff19161461241b576040517f08c379a0000000000000000000000000000000000000000000000000000000008152600401612412906133b8565b60405180910390fd5b505b505050505050565b82805482825590600052602060002090600f016010900481019282156124c25791602002820160005b8382111561249257833561ffff1683826101000a81548161ffff021916908361ffff160217905550926020019260020160208160010104928301926001030261244e565b80156124c05782816101000a81549061ffff0219169055600201602081600101049283019260010302612492565b505b5090506124cf9190612559565b5090565b8280546124df906137e3565b90600052602060002090601f0160209004810192826125015760008555612548565b82601f1061251a57803560ff1916838001178555612548565b82800160010185558215612548579182015b8281111561254757823582559160200191906001019061252c565b5b5090506125559190612559565b5090565b5b8082111561257257600081600090555060010161255a565b5090565b6000612589612584846135ad565b61357c565b905080838252602082019050828560208602820111156125a857600080fd5b60005b858110156125d857816125be888261268c565b8452602084019350602083019250506001810190506125ab565b5050509392505050565b60006125f56125f0846135d9565b61357c565b9050808382526020820190508285602086028201111561261457600080fd5b60005b85811015612644578161262a88826127f2565b845260208401935060208301925050600181019050612617565b5050509392505050565b600061266161265c84613605565b61357c565b90508281526020810184848401111561267957600080fd5b6126848482856137a1565b509392505050565b60008135905061269b816139ee565b92915050565b600082601f8301126126b257600080fd5b81356126c2848260208601612576565b91505092915050565b60008083601f8401126126dd57600080fd5b8235905067ffffffffffffffff8111156126f657600080fd5b60208301915083602082028301111561270e57600080fd5b9250929050565b600082601f83011261272657600080fd5b81356127368482602086016125e2565b91505092915050565b60008135905061274e81613a05565b92915050565b60008135905061276381613a1c565b92915050565b60008151905061277881613a1c565b92915050565b600082601f83011261278f57600080fd5b813561279f84826020860161264e565b91505092915050565b60008083601f8401126127ba57600080fd5b8235905067ffffffffffffffff8111156127d357600080fd5b6020830191508360018202830111156127eb57600080fd5b9250929050565b60008135905061280181613a33565b92915050565b60006020828403121561281957600080fd5b60006128278482850161268c565b91505092915050565b6000806040838503121561284357600080fd5b60006128518582860161268c565b92505060206128628582860161268c565b9150509250929050565b600080600080600060a0868803121561288457600080fd5b60006128928882890161268c565b95505060206128a38882890161268c565b945050604086013567ffffffffffffffff8111156128c057600080fd5b6128cc88828901612715565b935050606086013567ffffffffffffffff8111156128e957600080fd5b6128f588828901612715565b925050608086013567ffffffffffffffff81111561291257600080fd5b61291e8882890161277e565b9150509295509295909350565b600080600080600060a0868803121561294357600080fd5b60006129518882890161268c565b95505060206129628882890161268c565b9450506040612973888289016127f2565b9350506060612984888289016127f2565b925050608086013567ffffffffffffffff8111156129a157600080fd5b6129ad8882890161277e565b9150509295509295909350565b600080604083850312156129cd57600080fd5b60006129db8582860161268c565b92505060206129ec8582860161273f565b9150509250929050565b60008060408385031215612a0957600080fd5b6000612a178582860161268c565b9250506020612a28858286016127f2565b9150509250929050565b60008060408385031215612a4557600080fd5b600083013567ffffffffffffffff811115612a5f57600080fd5b612a6b858286016126a1565b925050602083013567ffffffffffffffff811115612a8857600080fd5b612a9485828601612715565b9150509250929050565b60008060208385031215612ab157600080fd5b600083013567ffffffffffffffff811115612acb57600080fd5b612ad7858286016126cb565b92509250509250929050565b600060208284031215612af557600080fd5b6000612b0384828501612754565b91505092915050565b600060208284031215612b1e57600080fd5b6000612b2c84828501612769565b91505092915050565b600060208284031215612b4757600080fd5b6000612b55848285016127f2565b91505092915050565b60008060008060008060808789031215612b7757600080fd5b6000612b8589828a016127f2565b965050602087013567ffffffffffffffff811115612ba257600080fd5b612bae89828a016127a8565b95509550506040612bc189828a0161273f565b935050606087013567ffffffffffffffff811115612bde57600080fd5b612bea89828a016126cb565b92509250509295509295509295565b6000612c058383613207565b60208301905092915050565b612c1a8161372d565b82525050565b6000612c2b82613645565b612c358185613673565b9350612c4083613635565b8060005b83811015612c71578151612c588882612bf9565b9750612c6383613666565b925050600181019050612c44565b5085935050505092915050565b612c878161373f565b82525050565b6000612c9882613650565b612ca28185613684565b9350612cb28185602086016137b0565b612cbb8161391a565b840191505092915050565b6000612cd18261365b565b612cdb8185613695565b9350612ceb8185602086016137b0565b612cf48161391a565b840191505092915050565b6000612d0c603483613695565b91507f455243313135353a207472616e7366657220746f206e6f6e204552433131353560008301527f526563656976657220696d706c656d656e7465720000000000000000000000006020830152604082019050919050565b6000612d72602883613695565b91507f455243313135353a204552433131353552656365697665722072656a6563746560008301527f6420746f6b656e730000000000000000000000000000000000000000000000006020830152604082019050919050565b6000612dd8602b83613695565b91507f455243313135353a2062616c616e636520717565727920666f7220746865207a60008301527f65726f20616464726573730000000000000000000000000000000000000000006020830152604082019050919050565b6000612e3e602683613695565b91507f4f776e61626c653a206e6577206f776e657220697320746865207a65726f206160008301527f64647265737300000000000000000000000000000000000000000000000000006020830152604082019050919050565b6000612ea4602983613695565b91507f455243313135353a2063616c6c6572206973206e6f74206f776e6572206e6f7260008301527f20617070726f76656400000000000000000000000000000000000000000000006020830152604082019050919050565b6000612f0a602583613695565b91507f455243313135353a207472616e7366657220746f20746865207a65726f20616460008301527f64726573730000000000000000000000000000000000000000000000000000006020830152604082019050919050565b6000612f70603283613695565b91507f455243313135353a207472616e736665722063616c6c6572206973206e6f742060008301527f6f776e6572206e6f7220617070726f76656400000000000000000000000000006020830152604082019050919050565b6000612fd6602a83613695565b91507f455243313135353a20696e73756666696369656e742062616c616e636520666f60008301527f72207472616e73666572000000000000000000000000000000000000000000006020830152604082019050919050565b600061303c602083613695565b91507f4f776e61626c653a2063616c6c6572206973206e6f7420746865206f776e65726000830152602082019050919050565b600061307c602983613695565b91507f455243313135353a2073657474696e6720617070726f76616c2073746174757360008301527f20666f722073656c6600000000000000000000000000000000000000000000006020830152604082019050919050565b60006130e2602983613695565b91507f455243313135353a206163636f756e747320616e6420696473206c656e67746860008301527f206d69736d6174636800000000000000000000000000000000000000000000006020830152604082019050919050565b6000613148602883613695565b91507f455243313135353a2069647320616e6420616d6f756e7473206c656e6774682060008301527f6d69736d617463680000000000000000000000000000000000000000000000006020830152604082019050919050565b60006131ae602183613695565b91507f455243313135353a206d696e7420746f20746865207a65726f2061646472657360008301527f73000000000000000000000000000000000000000000000000000000000000006020830152604082019050919050565b61321081613797565b82525050565b61321f81613797565b82525050565b600060208201905061323a6000830184612c11565b92915050565b600060a0820190506132556000830188612c11565b6132626020830187612c11565b81810360408301526132748186612c20565b905081810360608301526132888185612c20565b9050818103608083015261329c8184612c8d565b90509695505050505050565b600060a0820190506132bd6000830188612c11565b6132ca6020830187612c11565b6132d76040830186613216565b6132e46060830185613216565b81810360808301526132f68184612c8d565b90509695505050505050565b6000602082019050818103600083015261331c8184612c20565b905092915050565b6000604082019050818103600083015261333e8185612c20565b905081810360208301526133528184612c20565b90509392505050565b60006020820190506133706000830184612c7e565b92915050565b600060208201905081810360008301526133908184612cc6565b905092915050565b600060208201905081810360008301526133b181612cff565b9050919050565b600060208201905081810360008301526133d181612d65565b9050919050565b600060208201905081810360008301526133f181612dcb565b9050919050565b6000602082019050818103600083015261341181612e31565b9050919050565b6000602082019050818103600083015261343181612e97565b9050919050565b6000602082019050818103600083015261345181612efd565b9050919050565b6000602082019050818103600083015261347181612f63565b9050919050565b6000602082019050818103600083015261349181612fc9565b9050919050565b600060208201905081810360008301526134b18161302f565b9050919050565b600060208201905081810360008301526134d18161306f565b9050919050565b600060208201905081810360008301526134f1816130d5565b9050919050565b600060208201905081810360008301526135118161313b565b9050919050565b60006020820190508181036000830152613531816131a1565b9050919050565b600060208201905061354d6000830184613216565b92915050565b60006040820190506135686000830185613216565b6135756020830184613216565b9392505050565b6000604051905081810181811067ffffffffffffffff821117156135a3576135a26138eb565b5b8060405250919050565b600067ffffffffffffffff8211156135c8576135c76138eb565b5b602082029050602081019050919050565b600067ffffffffffffffff8211156135f4576135f36138eb565b5b602082029050602081019050919050565b600067ffffffffffffffff8211156136205761361f6138eb565b5b601f19601f8301169050602081019050919050565b6000819050602082019050919050565b600081519050919050565b600081519050919050565b600081519050919050565b6000602082019050919050565b600082825260208201905092915050565b600082825260208201905092915050565b600082825260208201905092915050565b60006136b182613797565b91506136bc83613797565b9250827fffffffffffffffffffffffffffffffffffffffffffffffffffffffffffffffff038211156136f1576136f061385e565b5b828201905092915050565b600061370782613797565b915061371283613797565b9250826137225761372161388d565b5b828204905092915050565b600061373882613777565b9050919050565b60008115159050919050565b60007fffffffff0000000000000000000000000000000000000000000000000000000082169050919050565b600073ffffffffffffffffffffffffffffffffffffffff82169050919050565b6000819050919050565b82818337600083830152505050565b60005b838110156137ce5780820151818401526020810190506137b3565b838111156137dd576000848401525b50505050565b600060028204905060018216806137fb57607f821691505b6020821081141561380f5761380e6138bc565b5b50919050565b600061382082613797565b91507fffffffffffffffffffffffffffffffffffffffffffffffffffffffffffffffff8214156138535761385261385e565b5b600182019050919050565b7f4e487b7100000000000000000000000000000000000000000000000000000000600052601160045260246000fd5b7f4e487b7100000000000000000000000000000000000000000000000000000000600052601260045260246000fd5b7f4e487b7100000000000000000000000000000000000000000000000000000000600052602260045260246000fd5b7f4e487b7100000000000000000000000000000000000000000000000000000000600052604160045260246000fd5b6000601f19601f8301169050919050565b60008160e01c9050919050565b600060443d1015613948576139eb565b60046000803e61395960005161392b565b6308c379a0811461396a57506139eb565b60405160043d036004823e80513d602482011167ffffffffffffffff82111715613996575050506139eb565b808201805167ffffffffffffffff8111156139b55750505050506139eb565b8060208301013d85018111156139d0575050505050506139eb565b6139d98261391a565b60208401016040528296505050505050505b90565b6139f78161372d565b8114613a0257600080fd5b50565b613a0e8161373f565b8114613a1957600080fd5b50565b613a258161374b565b8114613a3057600080fd5b50565b613a3c81613797565b8114613a4757600080fd5b5056fea2646970667358221220951829937e624935f01846461a05340fa5f41808e6fbda7908f9b1f83277695a64736f6c63430008000033a2646970667358221220f251104e229cda84aec5fcd8daa4a58036e6ee06012f9e727f7fd96362bbc83364736f6c63430008000033",
  "linkReferences": {},
  "deployedLinkReferences": {}
}